:10100000805F0020D94E000057ED0000C54E000063
:10101000C54E0000C54E0000C54E00000000000097
:10102000000000000000000000000000B54F0000BC
:10103000C54E00000000000095520000C54E0000A3
:101040004953000039910000495300004953000002
:101050004953000049530000495300004953000020
:101060004953000049530000C98B00004953000058
:101070004953000049530000495300004953000000
:1010800049530000495300004953000049530000F0
:10109000D991000049530000495300004953000012
:1010A00049530000495300004953000049530000D0
:1010B00049530000495300004953000049530000C0
:1010C00049530000495300004953000049530000B0
:1010D00049530000495300004953000049530000A0
:1010E0004953000049530000495300004953000090
:1010F0004953000049530000495300004953000080
:10110000014B1B685B68184700000020014B1B68FF
:101110009B68184700000020014B1B681B6918479B
:1011200000000020014B1B685B691847000000208D
:10113000014B1B689B69184700000020014B1B688E
:10114000DB69184700000020014B1B681B6A184729
:1011500000000020014B1B689B6A1847000000201C
:1011600030B4044C9DF8085024680295E468A44605
:1011700030BC604700000020171700001D1700005A
:101180001F17000045170000231700004F1700002D
:1011900029170000591700002F17000065170000DD
:1011A0003B1700003F170000311700003717000001
:1011B000551700005F17000030B50346114890F93D
:1011C0001C209A4219DD90F924209A4217DA9A1AC3
:1011D000846AA05C0C4A15569D420DD00E3200293F
:1011E00018BF01309442C0B206D129B1013BDBB235
:1011F000012B01D80130C0B230BD0D20FCE700202A
:10120000FAE700BF100800205432010008B5054B72
:1012100093F91C30984203DAFFF7CEFF024B1B56BE
:10122000184608BD100800205432010008B5184BBC
:1012300093F82C20FAB9012283F82C20154A126861
:10124000A2F10800082803D813490141C90709D5AC
:10125000911F092910D9013212D04FF4DF71742087
:1012600000F034F80D4A9A62D8221A6283F82420DA
:1012700008229A611A7708BD094A0A41D207ECD4BC
:10128000084A9A62D8221A6283F824200422F0E7DE
:1012900010080020C0090020DEFEFFFF8F32010091
:1012A000EEFCFFFF62320100BFF34F8F0549064B92
:1012B000CA6802F4E0621343CB60BFF34F8F00BFF4
:1012C000FDE700BF00ED00E00400FA051FB572B6AF
:1012D000134B5D6895B9FFF7E7FF2346B2FBF6F2C3
:1012E0005C1C002AF9D104AEDCB256FA83F303F891
:1012F0000C2C0A2234B901A8A847ECE702460023C7
:101300000A26EDE7631E04AEDCB256FA83F3B0FBA7
:10131000F2F602FB1600303003F80C0C3046E9E719
:10132000880900204FF08052034BD2F83011196029
:10133000D2F834215A607047C009002081F0004182
:1013400002E000BF83F0004330B54FEA41044FEAAA
:10135000430594EA050F08BF90EA020F1FBF54EA45
:10136000000C55EA020C7FEA645C7FEA655C00F0E1
:10137000E2804FEA5454D4EB5555B8BF6D420CDDB2
:101380002C4480EA020281EA030382EA000083EA35
:10139000010180EA020281EA0303362D88BF30BDD5
:1013A00011F0004F4FEA01314FF4801C4CEA11312B
:1013B00002D0404261EB410113F0004F4FEA03338A
:1013C0004CEA133302D0524263EB430394EA050F15
:1013D00000F0A780A4F10104D5F1200E0DDB02FA84
:1013E0000EFC22FA05F2801841F1000103FA0EF218
:1013F000801843FA05F359410EE0A5F120050EF1DE
:10140000200E012A03FA0EFC28BF4CF0020C43FA0E
:1014100005F3C01851EBE37101F0004507D54FF01B
:10142000000EDCF1000C7EEB00006EEB0101B1F56B
:10143000801F1BD3B1F5001F0CD349085FEA3000B1
:101440004FEA3C0C04F101044FEA445212F5800FBC
:1014500080F09A80BCF1004F08BF5FEA500C50F159
:10146000000041EB045141EA050130BD5FEA4C0C3C
:10147000404141EB0101013C28BFB1F5801FE9D299
:1014800091F0000F04BF01460020B1FA81F308BFBC
:101490002033A3F10B03B3F120020CDA0C3208DD88
:1014A00002F1140CC2F10C0201FA0CF021FA02F163
:1014B0000CE002F11402D8BFC2F1200C01FA02F1D3
:1014C00020FA0CFCDCBF41EA0C019040E41AA2BFF8
:1014D00001EB0451294330BD6FEA04041F3C1CDAC0
:1014E0000C340EDC04F11404C4F1200220FA04F0E0
:1014F00001FA02F340EA030021FA04F345EA03018A
:1015000030BDC4F10C04C4F1200220FA02F001FA4B
:1015100004F340EA0300294630BD21FA04F02946CD
:1015200030BD94F0000F83F4801306BF81F4801166
:101530000134013D4EE77FEA645C18BF7FEA655CD9
:1015400029D094EA050F08BF90EA020F05D054EAAB
:10155000000C04BF1946104630BD91EA030F1EBFB0
:101560000021002030BD5FEA545C05D140004941B4
:1015700028BF41F0004130BD14F580043CBF01F5A7
:10158000801130BD01F0004545F0FE4141F470018D
:101590004FF0000030BD7FEA645C1ABF1946104668
:1015A0007FEA655C1CBF0B46024650EA013406BF69
:1015B00052EA033591EA030F41F4002130BD00BF28
:1015C00090F0000F04BF0021704730B54FF48064E5
:1015D00004F132044FF000054FF0000150E700BF66
:1015E00090F0000F04BF0021704730B54FF48064C5
:1015F00004F1320410F0004548BF40424FF00001B2
:101600003EE700BF42004FEAE2014FEA31014FEAF4
:1016100002701FBF12F07F4393F07F4F81F0605143
:10162000704732F07F4208BF704793F07F4F04BF8E
:1016300041F40021704730B54FF4607401F000456B
:1016400021F000411CE700BF50EA010208BF7047CB
:1016500030B54FF000050AE050EA010208BF7047BC
:1016600030B511F0004502D5404261EB41014FF425
:10167000806404F132045FEA915C3FF4D8AE4FF02D
:1016800003025FEADC0C18BF03325FEADC0C18BF10
:10169000033202EBDC02C2F1200300FA03FC20FA61
:1016A00002F001FA03FE40EA0E0021FA02F11444AE
:1016B000BDE600BF53B94AB9002908BF00281CBFC6
:1016C0004FF0FF314FF0FF3000F00CB8ADF1080CD7
:1016D0006DE904CE00F059F8DDF804E0DDE90223FD
:1016E00004B07047704700BF08B5FFF71BFEBDE8A8
:1016F0000840FFF79BBD801A00F3070038B540B2E1
:101700000D4659B21446FFF781FD002328706B7017
:10171000204440B238BD002303607047704700206A
:1017200070474FF0FF3070474FF0FF307047704701
:101730004FF0FF30704700207047002070470023B3
:10174000037070479DF800300022FFF7D4BF4FF0C0
:10175000FF307047002070474FF0FF3070474FF068
:10176000FF307047704710F8012B11F8013B012A38
:1017700028BF9A42F7D0D01A7047034613F8012BBE
:10178000002AFBD1181A013870472DE9F0478C4622
:101790008E46089E154604461946002B40F0D08020
:1017A000724547D9B2FA82F74FB1C7F120030EFA5A
:1017B00007FC20FA03F3BD4043EA0C0CBC404FEA9F
:1017C000154EA8B2BCFBFEF8230C0EFB18CC08FB90
:1017D00000F943EA0C43994528D9EB1808F1FF3288
:1017E00004D2994502D9A8F102022B44A3EB0903C4
:1017F000A4B2B3FBFEFC0EFB1C330CFB00F044EA6E
:101800000344A04214D92C190CF1FF3304D2A04296
:1018100002D9ACF102032C44241A43EA02401EB15F
:10182000FC40002334607360BDE8F0874246DDE78A
:101830006346F1E7002A79D0B2FA82F3002B3FD059
:101840001946C1F1200302FA01F52EFA03F20EFA4D
:1018500001FE20FA03F343EA0E034FEA154E00FAA5
:1018600001F4B2FBFEFCAFB20EFB1C201A0C0CFB09
:1018700007F842EA004290455AD9AA180CF1FF3005
:1018800004D2904502D9ACF102002A44A2EB08022E
:101890009BB2B2FBFEFC0EFB1C220CFB07F743EADB
:1018A00002439F4246D9EB180CF1FF3204D29F420B
:1018B00002D9ACF102022B44DB1B42EA004202E0F7
:1018C000AEEB020301224FEA154EAFB2B3FBFEFCB2
:1018D000200C0EFB1C330CFB07F840EA0343984531
:1018E0002AD9EB180CF1FF3004D2984502D9ACF19B
:1018F00002002B44A3EB0803A4B2B3FBFEFC0EFBD7
:101900001C330CFB07F744EA0344A74216D92C19F1
:101910000CF1FF3304D2A74202D9ACF102032C44EC
:10192000E41B43EA00400F46114678E71F2188E791
:101930006046ABE76246BFE76046DBE76346EFE73A
:10194000734506D916B9002108466DE7C6E9000EB1
:10195000F9E7B3FA83F787B9734501D3824207D811
:10196000841A6EEB030301209C461EB900215BE73D
:101970003846FAE7C6E9004CF8E7C7F1200CBB404F
:1019800022FA0CF51D4320FA0CF12EFA0CF30EFA94
:1019900007FE41EA0E014FEA154900FA07F4B3FBCE
:1019A000F9F81FFA85FE09FB18300B0C08FB0EFA3C
:1019B00043EA00439A4502FA07F240D9EB1808F1CE
:1019C000FF3004D29A4502D9A8F102002B44A3EBC0
:1019D0000A0389B2B3FBF9F809FB183308FB0EFEC2
:1019E00041EA03418E452CD9691808F1FF3304D22E
:1019F0008E4502D9A8F10203294443EA0040A0FB26
:101A00000298A1EB0E014145CE46434602D306D1D2
:101A10004C4504D2B9EB020E68EB05030138002EE9
:101A2000A4D0B4EB0E0261EB030101FA0CFC22FA24
:101A300007F34CEA0303F940C6E9003196E7404654
:101A4000C5E74346D9E70000F8B5164F3D68854223
:101A5000044625D0002D0BDB50225543124E13486F
:101A600005F1440131440BF035FF2E4486F8410066
:101A7000002C3C6010DB50230B495C430B1993F89E
:101A800041304BB14434094821440BF02CFFBDE8F0
:101A9000F84006480BF0DFBE044800F0B7FCF6E75C
:101AA000F8BD00BFD800002094130020741200205D
:101AB0002DE9F043D5B00BF064FE0646EFF3118438
:101AC000402383F31288BFF36F8F2C494FF4A07229
:101AD00004A810F07CFE2A4BD3F80080294B1F6825
:101AE00084F31188BFF36F8FDFF8C89004AC002532
:101AF000237823B3236B4EF66022F31A93421ED849
:101B0000B3F57A7F35D294F838309A0733D41E4A29
:101B100013F0010F1D4B18BF1346626A0392A26AAD
:101B2000029294F83920019294F940200092184AC8
:101B300061681848454508BF4A460BF070FF0135FB
:101B4000042D04F15004D3D1134B1449002F18BFB6
:101B50001946134BBFF35B8F1B68BFF35B8F1148B4
:101B60003A460BF05CFF104855B0BDE8F0430BF06F
:101B700056BF0E4BD1E70E4BCFE700BF94130020AA
:101B8000D800002090130020F6390100EF39010041
:101B9000023A0100163A01000A3A0100113A010026
:101BA000D4140020453A01006A3A0100E8390100E6
:101BB000DE390100FB39010070B50378022B94B0C7
:101BC00005D11A4C1A4D684607F0E8FC08B114B06C
:101BD00070BD9DF80060202EF5D832460DF105014C
:101BE0000AA810F0F4FD9DF802308DF848605B42C1
:101BF0008DF849300FF0F9FCA0FB0402C00B40EA5D
:101C0000424013900B48002200230AA910F052FA18
:101C10000028D8D0BFF35B8F55E8003F013345E87B
:101C20000032002AF8D1BFF35B8FCCE740420F00AF
:101C3000D4140020A8060020F8B51D4E0025002170
:101C400040F6CD4010F027FC01350BF09AFDEFF384
:101C50001187402383F31288BFF36F8F3368002B03
:101C600021DB5021134A4B43D118D45C34B10B6BA8
:101C7000C01AB0F57A7F2CBF00240124214687F3D7
:101C80001188BFF36F8F0C480BF088FD74B90B4BB4
:101C90000B4A6B43B2EBB30F2CBF01210021094863
:101CA0000BF07CFDCBE700210C46E8E70021F6E7CE
:101CB000D80000209413002078350100CDCCCCCC86
:101CC000CCCCCC0C70350100F7B50E6805460C463F
:101CD00030463B49FFF747FD18B93A480BF09FFEE5
:101CE00020E039493046FFF73EFDF0B9022D1CD106
:101CF00060683649FFF737FDBFF35B8F0038344B20
:101D000018BF012053E8002F43E800010029F9D152
:101D1000BFF35B8FBFF35B8F1968BFF35B8F2D48F9
:101D20000BF07DFE012003B0F0BD2B493046FFF7DC
:101D30001AFD074688B9012D0FD128480BF06FFE18
:101D400040F26760002110F0A6FB4FF0804357225D
:101D5000C3F81C25384602F047F821493046FFF702
:101D600002FD10B9FFF7A4FEDCE71E493046FFF77D
:101D7000FAFC10BB022DD6D165681B492846FFF737
:101D8000F2FC50B1102201A928460AF051FB019B38
:101D90001B7803B908B91548A0E7EFF31183402277
:101DA00082F31288BFF36F8F114A106083F311889A
:101DB000BFF36F8F0F486168B2E70020B3E700BF41
:101DC000743A0100793A0100C13A01001F44010050
:101DD000D8140020C53A0100D03A0100DB3A0100D6
:101DE000EA3A0100F03A0100113A0100F53A010027
:101DF000901300201F3B01002DE9F047DFF87082AF
:101E0000BAB04FF0FF3218A94FF0FF33904808F0F6
:101E10001DFE0BF0B6FC9DF88010064610AA18A80F
:101E20000BF080FD0028ECD0EFF31189402383F301
:101E30001288BFF36F8F8748DDF844A0D8F800C040
:101E40004FF0FF321346002407460178002956D090
:101E500041688A4534D1502303FB04749DF85F30F8
:101E600084F839309DF8813084F84030237A9DF829
:101E700041209DF85E10266384F8382033B194F831
:101E80003A30E06BCB1A50FA83F3E36384F83A10EC
:101E9000D10707AB58BF666308AA10A904F1080070
:101EA0000BF076FDE51B6C4B2D115D436B4B1B68F6
:101EB0008246002B43D06268934237D128463BE0EC
:101EC000644521D10134042C00F15000BDD1581CCF
:101ED00002D1002A25DB1346502202FB03F57C19B0
:101EE0000021204610F081FC05F108000123384450
:101EF0007B55C4F804A026630BF046FDAEE7B3F1B2
:101F0000FF3F08BF2346DDE7002A08DB502505FB1D
:101F10000275016B2D6BA94238BF2246D2E72246DB
:101F2000D0E789F31188BFF36F8F6AE7D8F80030E4
:101F30009D421DD14FF0FF30FFF786FD18E0D8F825
:101F400000309D4214D0002BB8DB50225343FA18C6
:101F5000FB5C002BB2D0136BF61AB6F57A7FADD2CC
:101F600092F83830DA0703D594F83830DB07A5D576
:101F700063680B93636A0C93A36A0D93E36B0E93F0
:101F800094F840308DF83C3094F838308DF83D307E
:101F90005223D8F800608DF83E3089F31188BFF3E2
:101FA0006F8F2F4BBFF35B8F1B68BFF35B8FC3B18A
:101FB000BAF1000F15D1BDF95C300593BDF95A3067
:101FC0000493BDF9583003930A9B0293099B019334
:101FD000089B0093219A079BBDF8441021480BF001
:101FE0001EFDAE427FF40DAF0BA801F061FB00F0C7
:101FF00015FF1D490B68984206D022A800F0F4FE98
:102000001A4822A90BF059FC01F026F910B1174823
:1020100000F0FCF9BAF1010F03D114480BF01BFCDE
:10202000EFE6079A002A3FF4ECAE22AC16AB08A903
:102030000E48009400F01EFADDE9220101F052FD85
:10204000079A0A4816AB214601F0DCFAD9E600BF30
:10205000A806002094130020CDCCCCCC90130020F7
:10206000D81400202B3B01007012002074120020B5
:10207000D800002000B599B0184A194806210BF085
:10208000A1FB164A164808210BF09CFB00F088FEC5
:102090001449684600F0A8FE694613480BF0F6FBA9
:1020A000124801F01BFB124801F0CEFD114901203E
:1020B00001F01AFB38B1104801210BF06FFB002032
:1020C00019B05DF804FB07F0B3FA0028F3D10B4810
:1020D00010F0FAF90A4810F0F7F9F0E701001600DD
:1020E000482E010070120020741200206835010093
:1020F0007D320000B91B000070350100080B002084
:10210000400A002008B50BF078FBDFED137AB4EE3F
:10211000E70AF1EE10FA1CDD9FED107AF0EEC07ABE
:10212000F4EE477AF1EE10FA13D890ED007AC7EE8C
:10213000007A90ED017AC0ED007AC7EE007A90ED5A
:10214000027AC0ED017AC7EE007AC0ED027A012072
:1021500008BD0020FCE700BFBD378635FFFF7F7F4D
:10216000F0EE407A9FED0C7AF0EEE76AF4EE476A03
:10217000F1EE10FAB0EE600A0DD8F4EEE07AF1EE6E
:1021800010FA08D4F4EEC17AF1EE10FAD4BFB0EE32
:10219000670AB0EE410A7047FFFF7F7F08B590EDF8
:1021A000007ADFED147AB0EEC77AB4EE677AF1EE1A
:1021B00010FA024611D890ED017AB0EEC77AB4EE6B
:1021C000677AF1EE10FA08D890ED027AB0EEC77A8D
:1021D000B4EE677AF1EE10FA06D90B4603CB106025
:1021E00051601868906008BDFFF78CFF0028FAD195
:1021F000F3E700BFFFFF7F7F10B5342204460021C4
:102200002C3010F0F2FA01232360104B6360104B66
:10221000A360104BE360104B23614FF08043636178
:102220000E4B0F4AA3614FF07E53E361236262625B
:10223000A3640C4AA26240F201130B4AA4F8543082
:102240004FF07F53A2632264A36510BD295C0F3D4C
:1022500040DAFF380040D0440000C8410000A042EE
:102260000000F0419A99193E000080BF10B5044665
:1022700098B06846FFF7C0FF2368012B07D06022A3
:102280006946204610F0A3FA002018B010BDD4ED26
:10229000017AF5EEC07AF1EE10FA08DD9FED527A80
:1022A000F0EEE77AF4EE477AF1EE10FA01D9019BED
:1022B0006360D4ED027AF5EEC07AF1EE10FA08DD33
:1022C0009FED497AF0EEE77AF4EE477AF1EE10FAF4
:1022D00001D9029BA360D4ED037AB7EE007AF4EE45
:1022E000C77AF1EE10FA08DD9FED3F7AF0EEE77A5B
:1022F000F4EE477AF1EE10FA01D9039BE36094ED16
:10230000040A9FED3A1ADFED3A0AFFF729FFDFEDE5
:10231000390A84ED040AB3EE041A94ED050AFFF7B6
:102320001FFF9FED351A84ED050AF7EE000A94EDC4
:10233000060AFFF715FF9FED311ADFED310A84ED34
:10234000060A94ED070AFFF70BFF9FED2E1ADFED4B
:10235000290A84ED070A94ED080AFFF701FF9FEDB3
:10236000271ADFED230A84ED080A94ED090AFFF726
:10237000F7FEDFED200A84ED090AB3EE041A94EDAE
:102380000A0AFFF7EDFE9FED1F1A84ED0A0A94ED8D
:102390000B0AFFF7E5FEDFED1C0A84ED0B0A94ED56
:1023A000160AFFF7DDFE94F8543084ED160A032B6D
:1023B00028BF012384F8543094F85530003B18BFEF
:1023C000012384F855300CA904F13000FFF7E6FE34
:1023D0000FA904F13C00FFF7E1FE04F1480012A947
:1023E000FFF7DCFE012050E7FFFF7F7F0000FA438C
:1023F000CDCCCC3D000000000000FA4400007A443F
:102400000AD7233C00004842CDCC4C3D10B50023F8
:102410000022174983674FF0FF444367036780F842
:102420007C20C0F88830C0F88430C0F88030C0F814
:102430008C3080F8B42080F81821C0F89040C0F8A3
:102440009C10C0F8A830C0F89440C0F8A010C0F8A4
:10245000AC30C0F89840C0F8A410C0F8B030C0F854
:10246000D030C0F8D430C0F8E030C0F8E42010BD5F
:10247000000080FF2DE9F04393B004461A9E884681
:1024800015460021282230461F4610F0AEF994F878
:10249000183186F82430002D00F05C8307EE905A46
:1024A00094ED037AD4ED015A94ED026AF8EE677A5E
:1024B00006AD87EE874AEC462A466946002358F85F
:1024C000230007EE100AF8EEC76A37F9130086EE0C
:1024D000A77A0133032B27EE257AA1EC017A07EEC8
:1024E000100AB8EEC77A27EE067AA2EC017AE6D196
:1024F00094F8B430A3B9634603CBC4F8B8001868A5
:10250000C4F8BC102B46C4F8C00003CBC4F8C40008
:102510001868C4F8C8100123C4F8CC0084F8B4309B
:10252000DFEDE17AD4ED345A94ED356A64EE277A22
:10253000B7EE003A37EE837A04F18002C7EE874A9D
:1025400004F18C0160461346D3ED0E7AB0EC015ACB
:10255000D3ED116A35EE677A47EE247AB5EC017A4D
:10256000C3ED0E7A75EE677A77EE663A67EEA77A74
:1025700043EEA46A47EE845AD3ED007AC3ED116AA4
:1025800044EE057A37EE667AE3EC017A27EE077AB5
:10259000994207EE046AD7D1D4ED237A9FEDC35A4E
:1025A000C4ED345A74EE277A84ED356AF4EEC57AB8
:1025B000F1EE10FAC4ED237A00F1A9800025F2ECC7
:1025C000016A86EEA77A42F8045CD2ED034AB4EEC3
:1025D000E47AD2ED064AF1EE10FAB4EEE47A48BF9E
:1025E00082ED037AF1EE10FAC8BF82ED067A92ED21
:1025F000097A37EE267A914282ED097ADFD194ED9D
:10260000387AD4F8E430C4F88C5077EE877A013306
:10261000F4EEC37AF1EE10FAC4ED387AC4F8E4307F
:1026200075D40FA9D4ED166A04F1900304F19C0847
:1026300008464FF0010ED3ED064A84EEA77A1A46FB
:1026400004330EF0010ED2ED004AA0EC017A92EDB7
:10265000037A37EE647AB4EEE67AF1EE10FAC8BF88
:102660004FF0000E9845E6D1C5EEA76AF1EEE66A96
:1026700086EE277AC4ED366AF1EEC77A9FED8C7A42
:10268000C4ED377AF4EEC76AF1EE10FA40F16582D4
:102690009FED887AF4EEC77AF1EE10FA4CBF012074
:1026A0000020BEF1000F12D094F855307BB194F8A1
:1026B0007C3004F17002002B40F051820B4603CBBA
:1026C0002067186851600123906084F87C307A4B51
:1026D000C4F89C304FF0FF42C4F8A030C4F8A430D6
:1026E000002384F818E1C4F89020C4F8A850C4F876
:1026F0009420C4F8AC50C4F89820C4F8B050C4F882
:10270000D050C4F8D450C4F8E050C4F8E43004F118
:10271000700103AB06F1080204F17C00B1EC017A10
:10272000FCEC017A77EEC77A8842E2EC017AE3ECBE
:10273000017A67EE847AC2ED027AEFD1B7F9003000
:1027400094ED027ADFED642A07EE903AF8EEE77A2C
:10275000B7F9023067EE877A09A8CDED097A07EE5E
:10276000903AF8EEE77AB7F9043067EE877ACDED64
:102770000A7A07EE903AF8EEE77A67EE877ACDEDBF
:102780000B7A0BF03AF8B4EEE20AF1EE10FA40F3ED
:102790001E82DFED4A7AB4EEE70AF1EE10FA4CBF82
:1027A0000127002794F86C30DDED031ADDED043AC3
:1027B0009DED052A002B40F00C82F6EE007AB4EE77
:1027C000E70AF1EE10FA0CDD09AB03CB20661868BE
:1027D000A066616604F16000FFF794FC012384F8B1
:1027E0006C3094F85470012F04F1300540F03882B9
:1027F00094F86C30002B00F035820FAA04F14800E9
:1028000004F160010BF008F810460AF0F6FFDFED66
:102810002C7AB4EEE70AF1EE10FA40F32382FFF7C8
:1028200071FC002800F01E82D4ED187AF1EE677A70
:10283000CDED0C7AD4ED197AF1EE677ACDED0D7A03
:10284000D4ED1A7AF1EE677ACDED0E7A0FAB0CADBE
:1028500095ED016AD5ED007AD3ED016ADFED194AF5
:1028600023EE866A01EEA76A012FD5ED027A02EE09
:10287000276AD3ED007A63EEA66A41EEA76AD3ED2C
:10288000027A42EE276A52D094F85D30002B4ED087
:1028900003A80AF0B2FFDFED0D7AB4EEE70AF1EE1D
:1028A00010FA44DD1CE000BFDB0F4941CDCCCC3D2C
:1028B0009A99193FA69BC43B000080FF9A99993FC3
:1028C0009A99993E00000000DB0FC9406F12833ACD
:1028D00000FEFF4600FEFFC6CDCC4C3F35FA8E3CD5
:1028E00094ED137AD4ED127A63EE873A41EEA73A6B
:1028F000D4ED147A1FED0E7A42EE273AF0EEE33A69
:10290000C3EE807A72EEE72AC2EE877AF4EEE47ABA
:10291000F1EE10FA00F1F081F4EEC37AF1EE10FA64
:10292000C8BFF0EE437A26EE276A66EEA76A66EE27
:10293000A67A46EE067AF1EEE77A94ED0A7AB5EEDB
:10294000C07AF1EE10FA11DDB4EEE77AF1EE10FA8A
:10295000B5BF37EEC77A5FED256AC7EE275AB0EEEE
:10296000666ABCBF26EE256A66EEA56A26EEA65A02
:1029700006EE065AB1EEC55A94F8E830D4ED3B5A4B
:1029800094ED3C7A44EE065A04EE267AC4ED3B5AA6
:1029900084ED3C7A83B90123C4ED3D5A84ED3E7A3F
:1029A000C4ED425A84ED437A84ED3F5A84ED406A87
:1029B000C4ED416A84F8E8305FED3D2AD4ED097A30
:1029C00067EEA27A67EE847A37EE832AC7EE823A00
:1029D000D4ED3F7A35EE675A45EE237A94ED405AAE
:1029E000C4ED3F7A36EE456A06EE235A94ED416A0D
:1029F00084ED405A76EEC66A06EEA36AD4ED083A34
:102A0000D4ED076A84ED416A47EEA36A66EEA26AD6
:102A100066EE846A36EE834AC6EE843AD4ED3E6AA8
:102A200094ED3D4A37EE667A75EEC45A47EE236A56
:102A300094ED0B7AC4ED3E6AB5EEC07AF1EE10FA71
:102A400005EEA34AC8BF5FED5F5A84ED3D4AC8BF9B
:102A500027EE257AD4ED435AC4BF46EE076A05EE49
:102A6000074A94ED056A94ED067A27EE866A37EEFA
:102A7000877A76EEE55AC6EE077A94ED047A94EDFD
:102A8000426A77EE837A34EE466A67EE877A94ED8F
:102A9000447A06EE277A94ED456A05EEE76A84EDFE
:102AA000456A1FED756AB4EEC67AF1EE10FA00F3CE
:102AB00026815FED787AB4EEE77AF1EE10FA58BF2E
:102AC000F0EE477ABDEEE77AF8EEC75A77EEE57A90
:102AD000C4ED447A86ED007A94ED457AB4EEC67A78
:102AE000F1EE10FA00F30E815FED867AB4EEE77A2C
:102AF000F1EE10FA58BFF0EE477ABDEEE77AB8EE85
:102B0000C76A77EEC67AC4ED457A86ED017AD4EDD0
:102B10003B7AD4F8FC30C4ED424A77EEC47AC4ED77
:102B2000434AC4ED3B7AD4ED3D7A77EEC47AC4EDE6
:102B30003D7AD4ED3C7A77EEE67AC4ED3C7AD4ED7A
:102B40003E7A77EEE67AC4ED3E7A336294F8183135
:102B500086F8243013B0BDE8F0830020A1E504F12D
:102B60007C0870B15FEDA46AD2ED007AB1EC017A15
:102B700037EE677A47EE267AE2EC017A9045F3D198
:102B8000A5E510468946B6EE007AF0EC016AF9EC4C
:102B9000017A77EEE67AF0EEE77AF4EEC77AF1EEB4
:102BA00010FA03F00103C8BF00238045EDD1002BCC
:102BB0003FF48DADD2ED007AB1EC017A37EE677A51
:102BC00047EE057AE2EC017A9045F3D17FE50027E4
:102BD000E8E55FEDBE7A21EEA77A04F160018DEDA4
:102BE0000C7A23EEA77A62EE277A0CA80FAA8DED55
:102BF0000D7ACDED0E7A04F16C050AF00DFE0B4650
:102C00000846D3ED007AB2EC017A44EE477AE3EC61
:102C1000017A9D42F5D147B90846FFF773FA0028BB
:102C20007FF4DFAD84F86C00DBE574EE047A09AB69
:102C3000F4EEC37AF1EE10FAD4BFB0EE677AB0EEDC
:102C4000437AB3EC016AD0ED007AC6EE006A76EE04
:102C5000E76A46EE877AE0EC017A8542F1D1DBE75C
:102C6000022F02D004F13C03F2E594F86C30002B03
:102C7000F8D00FAA04F1480004F160010AF0CCFD7D
:102C800010460AF0BAFDDFED217AB4EEE70AF1EE64
:102C900010FAF0EE406AE5DDFFF734FA0028E1D0E3
:102CA00026EEA60A2B4633EE407A0CA904F13C0C22
:102CB0001846D0ED007AD0ED0C6A67EE277A46EE22
:102CC000C07A04339C45D3ED026AE1EC017AD2ED7F
:102CD000007A67EE807A47EE267AE2EC017AE7D155
:102CE0000CA8FFF70FFA0028BCD00FA8FFF70AFACC
:102CF00000287FF4ABADB5E7F0EE647A13E6F0EEB2
:102D0000467ADFE6DFED027AF7E600BF9A99193ED0
:102D100000FEFF4670B59AB00C4615461A4901AA46
:102D20001E460BF0E6FE58B3019B4BBB602C24D132
:102D3000224602A93046A847602804461DD102A8B1
:102D4000FFF794FAC8B1114B0593114B0393114B44
:102D50000493EFF31185402383F31288BFF36F8F41
:102D60000D48224602A90FF032FD0C4A13680133C8
:102D7000136085F31188BFF36F8F00201AB070BD08
:102D80006FF00100FAE700BF783B01000040D0443B
:102D9000295C0F3D40DAFF38E0140020DC140020ED
:102DA00008B50B48FFF728FA094A0A4BD3600A4BCB
:102DB00053600A4B93600A4B01221A6001F03CFCFD
:102DC00020B9BDE80840074801F04EBB08BD00BF70
:102DD000E01400200040D044295C0F3D40DAFF3869
:102DE000DC140020703B010038B50C46EFF3118570
:102DF000402383F31288BFF36F8F064960220FF0E0
:102E0000E6FC14B1044B1B68236085F31188BFF303
:102E10006F8F38BDE0140020DC140020014B1868CF
:102E2000704700BFDC14002010B598B00146602246
:102E300068460FF0CCFC012368460093FFF716FAB2
:102E40000D4B03930D4B01930D4B0293EFF3118444
:102E5000402383F31288BFF36F8F602269460948CD
:102E60000FF0B5FC084A13680133136084F311882E
:102E7000BFF36F8F18B010BD0040D044295C0F3DE8
:102E800040DAFF38E0140020DC14002000B599B0CF
:102E900068460021FFF7A8FF60226946024801F05A
:102EA000B1FA19B05DF804FB743B010037B50C466C
:102EB00001A9054609F02EF9019BAB420FD0187805
:102EC00068B99FED087AF0EEC07AF4EE477AF1EE39
:102ED00010FA02D884ED000A012003B030BD0020B2
:102EE000FBE700BFFFFF7F7FF0B58A680B7989B0F1
:102EF0000C468518032B32D8DFE803F0020E160EBD
:102F00008058FEF77FFB02460B461648216809B041
:102F1000BDE8F0400AF083BD825C2168124809B028
:102F2000BDE8F0400AF07BBD8058696805AB03C37B
:102F3000A86818600598FEF765FB064607980F46D7
:102F4000FEF760FBCDE902010698FEF75BFBCDE9D9
:102F500000013246216805483B460AF060FD09B091
:102F6000F0BD00BF7C3B0100873B0100903B0100AE
:102F70002DE9F04F2DED108BB5B00FF06CFB4FF439
:102F80007A73A0FB030203FB0121C30B43EA414315
:102F900014334FEAD13242F10002D20342EA5342E3
:102FA00040F2E731DB035B184FF000071A93A24CA5
:102FB000A24EDFEDA3FA42F100031B93B846B946D7
:102FC000BA461A9BB3F57A7F1B9B73F10003C0F0DE
:102FD0002D810023DDE91A014FF47A72FEF76AFBB6
:102FE0006FF00103181A4FF0FF3363EB01010FF08C
:102FF00052FAEFF31183402282F31288BFF36F8FEE
:10300000E26827922269269262692592A269249237
:1030100094F820202392B4F93C202292B4F93E2067
:1030200094ED00FAD4ED01EA94ED02EAD4ED07DA6A
:1030300094ED09DAD4ED0ACA94ED0BCAD4ED0CBABA
:1030400094ED0DBAD4ED0EAA94ED11AAD4ED129A16
:1030500009EE102AB4F9402008EE902A32681C923A
:1030600072681F92B2681E92F2681D9296F9102043
:1030700021920025727C96F812B02092C4E9005586
:10308000C4E90355C4E90555A560C4ED07FA83F307
:103090001188BFF36F8F1C9B9A4501BF1F9BA3EB49
:1030A00009091E9BA3EB080804BF1D9BDD1B654B94
:1030B0001B781CBFA846A946002B00F0A88000F092
:1030C00085FD002800F0A3800FF0C5FA4FF47A7355
:1030D000A0FB03029FED5C8A03FB0122C00B40EAC8
:1030E0004241BBF1000F2FEE080A339108BF4FF0A9
:1030F0002D0B0AF0FBFA2EEE880A28900AF0F6FA59
:103100002EEE080A29900AF0F1FAB2EE040A2DEE2A
:10311000800A2A900AF0EAFA2DEE080A2B900AF0AB
:10312000E5FA2CEE880A2C900AF0E0FA2CEE080A58
:103130002D900AF0DBFA2BEE880A07460AF0D6FA41
:103140002BEE080A2E900AF0D1FA2AEE880A2F9068
:103150000AF0CCFADDED227ADFED3CAAB8EEE70A00
:10316000824620EE2A0A20EE080A0AF0BFFAB8EEDC
:10317000C90A229020EE2A0A20EE080A0AF0B6FABE
:10318000B8EEE80A329020EE2A0A20EE080A0AF089
:10319000ADFA2AEE080A31900AF0A8FA9FED2C0A3F
:1031A000309029EE800A0AF0A1FA209B319A119200
:1031B000CDE91753219BCDE91583309B1293329BA8
:1031C0001093229BCDE90EA32F9B0D932E9BCDE94F
:1031D0000B732D9B0A932C9B0993239B08932B9B8A
:1031E0000793269B0693CDE91309279B05932A9BFA
:1031F0000493299B0393289B0293249B0193259B73
:1032000000931C9A339913485B460AF008FC1A9BFA
:10321000DDF87C90DDF870A013F520231A931B9B3A
:1032200043F10003DDE91D781B93CAE66FF001004E
:103230004FF0FF31DBE600BF5415002040150020A1
:10324000000000003405002000007A4440DAFF3816
:1032500000401C46A53B0100074BBFF35B8F0022DB
:1032600053E8000F43E800210029F9D1BFF35B8F39
:10327000801A18BF01207047A01500202DE9F04FDB
:10328000B5B09A4900246A4600940FF0FAFA04ADEA
:10329000D8B1082C10D1049E95493046FEF763FA48
:1032A000C0B9944B94481B68012219680AF0B7FB17
:1032B00092480AF0B4FB0AE045F8040B8B496A46D1
:1032C000002001340FF0DDFAE2E7002CE3D135B045
:1032D000BDE8F08F8A493046FEF745FA054678B9D1
:1032E00001460CA8FFF780FD864E31460CA801353B
:1032F000FFF7FAFD102D06F10C06F6D18248D8E74B
:1033000082493046FEF72FFA0546002840F09D809E
:10331000022C01DC7E48CCE7059FDFF8E8914FF0F6
:103320000C0B0BFB05F8394659F808603046FEF7E0
:103330001AFA08EB090A014678B90CAD2846FFF7DE
:1033400053FDDAF808709AF8043005EB070B032BED
:1033500018D8DFE803F00A265A3C0135102DE0D1D9
:103360006C4839460AF05BFBB1E7032C02D06A488F
:103370003146F7E7069801A9FFF798FD0028F6D037
:10338000019BEB512846FFF74FFD00212846FFF730
:103390002BFD09EB08012846FFF7A6FD5F483146E3
:1033A000E0E7032C02D05E483146DBE7069801A92E
:1033B000FFF77CFD0028F6D0DDED017AF5EE407ACE
:1033C000F1EE10FA14BF01230023EB55DAE7032CCA
:1033D00002D054483146C5E7069801A9FFF766FDBB
:1033E0000028F6D0DDED017AF5EEC07AF1EE10FAA4
:1033F000EFD49FED4D7AF4EEC77AF1EE10FAE8DCE7
:10340000FCEEE77A17EE903ADFE7052C02D047484A
:103410003146A7E7069801A9FFF748FD0028F6D036
:10342000079802A9FFF742FD0028F0D0089803A9E9
:10343000FFF73CFD0028EAD001AB03CBE851186848
:10344000CBF80410CBF808009CE739493046FEF76A
:103450008AF938B9FFF71AFD014608B1354881E706
:10346000354826E735493046FEF77DF918B90AF0A8
:10347000CBFA33481DE733493046FEF774F968B993
:10348000BFF35B8F304B012253E8001F43E800205D
:103490000028F9D1BFF35B8F2C480AE72C4930464E
:1034A000FEF761F968B9022C0BD12A490598FEF79D
:1034B0005AF9003818BF012000F06EFB0599264824
:1034C00050E726493046FEF74EF900284CD1022C31
:1034D0004AD1059C1F492046FEF745F9204B00388C
:1034E00018BF0120187021461E483BE7FE3B010033
:1034F0005E3B0100A4150020023C01000F3C0100CE
:10350000173C0100803501001B3C0100233C0100F9
:10351000273C0100533C01006B3C0100E83C0100EA
:10352000883C0100A13C010000007F43C83C010031
:10353000F33C0100F83C0100053D01000E3D010097
:10354000173D0100243D0100A01500202B3D010086
:10355000363D01001F4401003D3D01004B3D01008F
:1035600034050020553D01001E493046FEF7FBF8AA
:10357000054650BB0CAE0146A02230460FF035F98F
:1035800019481A4F0AF04BFA2C4657F82430184ABB
:10359000C5F1A001701908F093FD002806DB2D2C61
:1035A000054403D09F2D04F10304EED911483146A0
:1035B0000AF035FA104B1B685B6823B1094A019287
:1035C00001A9012098470D4873E60B4B1B685B6807
:1035D00013B90B483146C5E604A920469847002890
:1035E000F7D074E6743A0100663D010080350100B1
:1035F000AF3D0100B33D0100A4150020C33D010013
:10360000CC3D01002DE9F043EFF31186402484F313
:103610001288BFF36F8F254D01F1140700F1600C84
:10362000023B05F13A0E01F120082C46B7EC017A75
:10363000D5ED007A77EE877A4745E5EC017ADCF83C
:103640001090C5F820905CF8049BC5F82C9033F9D5
:10365000029F2EF8029FE9D10D68E368D1ED087A48
:1036600094ED077A2B44E3604D6823692B44236172
:10367000636901336361A3691344A36191F8243042
:1036800084F82030F4EEC77AD0F8D8306364F1EED5
:1036900010FAD0F8DC30C8BFC4ED077AA36486F313
:1036A0001188BFF36F8FBDE8F08300BF5415002071
:1036B00070B50446EFF31186402383F31288BFF3FD
:1036C0006F8F0FCC044D0FC523682B6086F31188D4
:1036D000BFF36F8F70BD00BF40150020014B186015
:1036E000704700BFA4150020F0B5144D07460E46E4
:1036F0000FCD87B001AC0FC42B68236001A8002355
:1037000001248DF805700296ADF812308DF817403F
:1037100005F03AFE78B90A4806F008F858B90948A1
:1037200006F01EF838B90848214606F031F810B9FD
:103730004C2006F053F807B0F0BD00BF4032010046
:10374000874401008344010082440100EFF31182A9
:10375000402383F31288BFF36F8F074B197007491B
:1037600000230B7006490B6006490B6082F3118839
:10377000BFF36F8F704700BF13210020122100207C
:10378000B0150020B415002010B5084CA0B04FF0C3
:10379000FF3307484FF0FF32694607F057F92368B7
:1037A000002BF4D068469847F1E700BFA815002029
:1037B000800600202DE9F04F524EB1B00446A368B8
:1037C000DB6B002B40F09080A3689B6B002B40F0DC
:1037D0009380A368DB6A33B9A3681B69002B34D1DB
:1037E0006FF0570836E0204698470028F4D1A368C8
:1037F000DB691BB1204698470028E0D0EFF3118722
:10380000402383F31288BFF36F8F3F4D2946EB8827
:1038100031F80A2F9B1A9BB2402B10AA28BF4023D5
:1038200028460AF04FFC024600284CD105F10A0157
:1038300028460AF07DFCA3689B690BB12046984797
:1038400087F31188BFF36F8FB9E74022694620469E
:1038500098478046DFF8C0906D464FF0000AC24599
:10386000C5DA15F8012B0A2A01D00D2A1DD196F8C8
:1038700000B0BBF1000F13D1D9F8007087B13A4600
:10388000224910A80EF0A3FF07F1C0030DEB0307B8
:1038900007F880BC1E480022002310A90EF00AFC85
:1038A0000023C9F80030337008E0D9F800307E2BCF
:1038B00007D8591CC9F800101449CA540AF1010A62
:1038C000CDE70123EFE7A3681099DB684BB12046F1
:1038D0009847104920EAE072A1F10A000AF028FC9A
:1038E000AEE76FF05700F4E72046984700287FF4D2
:1038F0006BAF31B0BDE8F08F2046984700287FF4C9
:1039000068AFF6E790200020DC0000209120002026
:1039100080060020E6000020AC1500202DE9F047CD
:10392000EFF311814FF0400A8AF31288BFF36F8FD3
:103930002C4B1B7883B1DFF8C88098F800305BB956
:10394000294B1B7803F0FF0933B9284F284E3A68FA
:10395000336852EA030005D181F31188BFF36F8FFA
:10396000BDE8F08747F6FF74A24222481546A8BF7B
:1039700025468542B8BF05469C42A8BF1C468442E6
:10398000B8BF0446521B1B1B3A6033601A4A01231E
:1039900088F80030C5F307239370C4F3072382F837
:1039A00000905570D470137182F8059081F31188DE
:1039B000BFF36F8F114806210CF05AFE0028CFD0BC
:1039C000EFF311828AF31288BFF36F8F3B6888F898
:1039D00000902B443B6033682344336082F31188AA
:1039E000BCE700BF1321002014210020B4150020E3
:1039F000B01500200180FFFFB81500209C2E0100AB
:103A000012210020EFF31183402282F31288BFF3CA
:103A10006F8F044A0021117083F31188BFF36F8FF9
:103A2000FFF77CBF1221002013B50B780446092B49
:103A300018D8DFE803F0050E1C1924171717172AEA
:103A40000BF013FB70B1204602B0BDE810400BF044
:103A5000ABBA0BF00AFB10B120460BF0E8FA1D4B95
:103A600000221A7002B010BD1B4B0122F9E71A4B5D
:103A700000221A7002B0BDE81040FFF74FBF164A8F
:103A800000231370134A1370ECE7002301931348CB
:103A900083689B6C13B101AA04219847019B0D4ACE
:103AA000003B18BF01231370137803F0FF02002BB3
:103AB000D8D1EFF31181402383F31288BFF36F8FC6
:103AC000074BC3E90122DA6081F31188BFF36F8FDE
:103AD000C8E700BF1121002014210020642E01003E
:103AE000DC00002050EA0103F0B410D0EFF31184A1
:103AF000402383F31288BFF36F8F214B1B7813B1E0
:103B0000204B1B782BB984F31188BFF36F8FF0BC67
:103B100070471D4D1D4E2A68C317101843EBE27302
:103B200086424FF0000272EB0307B8BF1346184AF3
:103B3000B8BF304690424FF0FF36B341B8BF104691
:103B400028601448114D0268CB17511843EBE273FB
:103B50008D424FF0000272EB0306B8BF13460C4AC9
:103B6000B8BF294691424FF0FF35AB41B8BF11466F
:103B7000016084F31188BFF36F8FF0BCFFF7CEBEF6
:103B80003505002013210020B415002040420F000D
:103B9000C0BDF0FFB0150020EFF31183402282F387
:103BA0001288BFF36F8F064A107018B9054A10606B
:103BB000054A106083F31188BFF36F8F704700BF11
:103BC00035050020B0150020B4150020044B1B78EB
:103BD00003F0FF001BB1034B187880F00100704721
:103BE000112100201421002070B50546FFF7EEFFDB
:103BF0000A46044698B1EFF31186402383F31288F6
:103C0000BFF36F8F0E48818983885B1A01699BB26D
:103C1000C91A8A4206D986F31188BFF36F8F002430
:103C2000204670BD29460AF09CFA86F31188BFF33E
:103C30006F8F044883685B69002BF1D09847EFE7EA
:103C4000DC000020642E01003E4B37B518603E4872
:103C50000EF03FF920B96FF01204204603B030BDDA
:103C60003A4D28460EF035F90028F4D0384B394942
:103C7000354840220CF0FFFC04460028EDD1AB682B
:103C80002BB11B6C1BB10246334928469847334978
:103C900033480BF04BFA04460028DED13149304856
:103CA0000BF044FA04460028D7D12F492C480BF0DA
:103CB0003DFA04460028D0D12C4929480BF036FAA9
:103CC00004460028C9D10146294A25480BF015FDB4
:103CD00004460028C1D1034601460122204802F0D3
:103CE0009FFC04460028B8D10123EF22014600932F
:103CF0001B4802230BF0EFF8214619480BF00FF98F
:103D00001C4917480BF0CDFF04460028A5D11448E4
:103D10000BF01AF9044600289FD1AB681B6A0BB15F
:103D20000A4898470E480BF0A0F928B14FF080439D
:103D3000D3F83834DB0790D5094803B0BDE83040EC
:103D40000BF032B9A81500209C2E0100642E010052
:103D5000403601008B440100B537000064010020AB
:103D6000640700204C010020340100201C010020C9
:103D7000F0000020293A0000014B1B68184700BFE3
:103D80007C01002030B5044685B00D46102200218C
:103D900068460EF02AFD02238DF802302A46044BB5
:103DA00001932146684608F039FC05B030BD00BFDC
:103DB000793D000080B505460E461746984607F047
:103DC0000FFD034601F0D2FADFF81890044649F8D7
:103DD0000030424630463946A84754F8090001F001
:103DE00043FA00BF0800000008B50446EFF3118352
:103DF000402383F31288BFF36F8FEFF3108372B603
:103E000004F0ACFE204601F04DFD03480AF027F80F
:103E10000AF0B5FFFCE700BF823E01002DE9F04744
:103E2000058B0446280717460CD501290CBF45F021
:103E3000100545F02005258387F31188BFF36F8FA8
:103E4000BDE8F087022905F0070540F09480204680
:103E50000AF02DF8052864D801A353F820F000BF1C
:103E6000393E0000773F0000233F0000E53E0000A0
:103E7000FF3E0000113F000001F007035A1F012A16
:103E80001FD8002221F00701062BD4F8008089B248
:103E9000C4E9002209D1434603E0628B0132628308
:103EA0001B68002BF9D141F002012183204609F063
:103EB000FEFF4FF0000900286DD041F02001218362
:103EC00069E0042B0AD121F0070189B22183204641
:103ED00009F0EDFF10B141F0200121834FF00008FF
:103EE000C14658E02369D3F80090238B23F00703E1
:103EF00043F0060323834FF0000846464BE0236956
:103F0000D3F80490238B23F0070343F00403F1E775
:103F10002369D3F80890238B23F0070343F00503AC
:103F2000E8E74FF00008C146E7E7012243F0080345
:103F3000238387F31188BFF36F8F002A3BD1B8F139
:103F4000000F4AD1B9F1000F02D02D492046C847D1
:103F5000EFF31187402383F31288BFF36F8F238B16
:103F600023F008039BB22383D9063FD523F0100228
:103F7000228303F007056669218B002EBFF67CAF14
:103F80000023D4F8008021F00701C4E9003341F098
:103F9000010121839946238B03F0070AAA4502D029
:103FA000A268002AC1D1B8F1000F02D1B9F1000F07
:103FB000DAD00022BAE7A1680029C0D00D68002934
:103FC000BDD04F68334652462046B8471DB12B68D6
:103FD00029461D46F3E72B46FAE74146334652464B
:103FE0002046D8F8008009F08EFFA8E79A067FF5F2
:103FF00023AF23F02002228303F0070527E700BF49
:1040000033DF000037B504460821C06A124D0AF0BC
:10401000F9F900234FF6FF72ADF804306368ADF88C
:1040200000208DF80620E26819182B401344181A56
:1040300060606846ADF802100AF03CF96946204617
:104040000AF0FFF9211D20460AF00EF963682B40A3
:10405000A36003B030BD00BF0000FFFF2DE9F743B0
:104060000F4681460821C06A144D0AF0CBF93C681E
:10407000241A80463C6004EA0506B4421CD3A0B270
:1040800010B903B0BDE8F08308236A4621464846CC
:104090000AF0B1F80028F4D16946A0B20AF09EF9FE
:1040A00038B1BDF80230BDF804203C602E40134406
:1040B0001E44A4EB0804E0E70020E2E70000FFFF55
:1040C0002DE9F047044688B000F1140738460EF099
:1040D00000F8A06A8368DB689847E06228B96FF04F
:1040E0001505284608B0BDE8F087A06A8368DB683C
:1040F00098470368013B1F2BF1D8E368B3F5803F75
:10410000EDD8A06A216805AA0CF0C3FF0028E6D10B
:10411000E568002DE3D0069BB5FBF3F203FB1255D7
:10412000002DDCD1238A012BD9D9E36A009593F8BD
:1041300005804FF0FF334FF0FF32384606F0EAFCBF
:10414000E06A08210AF05EF9A9460646238A1FFAAA
:1041500085FA534544D8238A4B4500F0FF809A45A1
:104160000BD1009908234246891B20460AF051F8DA
:1041700018B9694620460AF077F869462046FFF7E5
:104180006DFF0546002840F0EB80009961604FEA22
:1041900011494FEA0949C4F80890A3688B420DD829
:1041A000082301AA20460AF026F8B8B901AB13F893
:1041B000012B904532D101300828F8D16368694657
:1041C0006FF30F03204600930AF04EF8E36800995E
:1041D000424620460AF01DF800283CDA0546BFE0BA
:1041E000E1682B04891B13FA81F14246082320461B
:1041F00000910AF00EF878B1694620460AF034F8CA
:1042000009F1010900990823424620461FFA89F95D
:1042100009F0FFFF00289ED0013597E7A08801A98B
:104220000AF0DCF8626810B9911B6160B5E7BDF86F
:1042300008A0BDF80610E06AC4F8089051440AF0DE
:10424000E1F848448242A060EED1BAF1000FEBD011
:104250006FF01C0584E05DD063684FF6FF7906EBD4
:104260000308E368CDF800801FFA88F29B1B9A428E
:104270001CD34FF000086168B8F1000F30D06FF325
:104280000F0100912046694609F0EEFF0099204693
:1042900009F0F7FF0028A1D1E368A288A3EB460349
:1042A0009A425DD120460AF0E9F897E7082303AA6D
:1042B0004146204609F09FFF00288FD103A91FFA2D
:1042C00088F00AF08BF830B1BDF80C304B4502D1C4
:1042D000BDF810300BB1B044C3E74FF00108CAE796
:1042E000204609F0CEFF00287FF478AF6368214AAA
:1042F000E16813400B44A3EB460363601340A360E3
:10430000414620460AF03EF9C4E7E26AA368126813
:104310001344A360D4E901318B4208D95B1A4246A9
:10432000204609F076FF0028FFF658AFEDD161680E
:10433000E36801EB46029A42AED10E4BA06801EA57
:1043400003029042A8D0204609F09BFF00287FF48A
:1043500045AF6268074B1A40A2609DE76FF02C05DD
:10436000384606F049FC002D7FF4BBAE0123A37450
:10437000B7E600BF0000FFFF014B0360002070475D
:104380006436010070B5104B1C680D46B4B10F4B7C
:10439000196800238B4202DB6FF0010070BD2246DA
:1043A00012F8106B864202D001331446F2E7E0683F
:1043B0000DF08FFD28B12C600020EFE76FF00C00AE
:1043C000ECE76FF01200E9E780010020643601009D
:1043D00010B588B0436802938368C068CDE90332A2
:1043E0000A680023CDE906230C4601AA0449059377
:1043F0000CF053FE079808B9059B236008B010BD68
:104400007DEA00002DE9F0410C4B1C6805460E4684
:1044100017467CB100F000F963682046D3F810809D
:1044200032463B462946C047044600F0FFF8204686
:10443000BDE8F0816FF00104F9E700BFC01500206E
:1044400000230360044B5A6812B9C3E900007047A7
:1044500010605860704700BFC4150020014B186001
:10446000704700BFC015002030B585B00023CDE9EE
:1044700002330546019000F0CFF8094B1C6844B99F
:10448000284600F06BF8044600F0D0F8204605B04E
:1044900030BD636820461B6801A998472468EEE791
:1044A000C4150020024B0022C3E90022704700BF60
:1044B000C4150020024B0022C3E90022FFF7F2BF1F
:1044C000CC1500202DE9F74307460C4609B100231F
:1044D0000B601F4DDFF8809000264D450FD31D4B1C
:1044E0001D6885B355F8188C01AA41463846183D19
:1044F0000AF0FFFA10B3D6B914BB2E461EE0D5F869
:10450000008001AA414638460AF0F3FA50B116B9C4
:1045100054B92E4606E03168002240460AF0E9FA16
:104520000028F5D11835D8E7019B2360F1E7316801
:10453000002240460AF0DDFA0028DDD1AD69D0E75F
:10454000019B2360D9E7304603B0BDE8F08300BF8C
:1045500020320100CC150020383201002DE9F0474F
:10456000DFF8AC90DFF8ACA080464FF000470026A3
:10457000264C3D464C450DD3DAF80040002C40D087
:10458000183CB8F1000F24D1226952BBA469F5E7A9
:104590002F46EDE7B8F1000F03D122694AB918346C
:1045A000E8E72068002241460AF0A3FA0028F4D187
:1045B000F5E76368BB4206DDAF4202D0AB42A8BF5D
:1045C0002B461D46EBE7EAD19047002E08BF064672
:1045D000E5E72068002241460AF08BFA0028D3D193
:1045E000D4E76368BB4206DDAF4202D0AB42A8BF4E
:1045F0002B461D46CAE7C9D19047002E08BF064684
:10460000C4E7AF42C4D13046BDE8F0872032010094
:1046100038320100CC15002003484FF0FF324FF034
:10462000FF3306F077BA00BF58060020014806F0B5
:10463000E3BA00BF5806002038B5094DFFF7ECFF7C
:104640002B785BB9FFF736FF00F068F8044608B92D
:1046500001232B70FFF7EAFF204638BD0024F9E75D
:10466000152100202DE9F043048F013499B006464E
:104670000F46A4B200F10808651EADB2B5F5004FB3
:1046800047D04A2305AA294640460AF0EFF904F527
:104690007F543F34A4B28146214601230DF10B0221
:1046A00040460AF0E3F9B9F1000F014610DC00289A
:1046B00010DC338FAB4209D132466B1E22F8383FF3
:1046C0004FF40041022340460AF09BF82C46D3E702
:1046D000002808DC294640460AF06FF9214640468A
:1046E0000AF06BF9E5E709F160030DEB030900231C
:1046F00009F84C3C084A009703AB05A8CDF80C809C
:10470000ADF810400AF019FA0028DFD019B0BDE862
:10471000F0830020FAE700BFA9EB00007FB501237A
:10472000694603200193FFF72DFE044660BB02AAF1
:1047300001A903200AF0C4F9044610B110F10C0FCE
:1047400022D10399B1F5803F23D2009A00239468C7
:104750001846084484421AD30133082BF9D10E4D70
:1047600069612B835368AB602846D368EB630AF01A
:10477000B1FA044640B9094E6E602846FFF760FE64
:1047800028466E60FFF76AFE204604B070BD9BB2FB
:10479000E5E76FF02004F7E7D4150020A836010004
:1047A00008B5044809F05BFB034809F058FB0020FA
:1047B00008BD00BFAB3E0100E03E0100014807F02C
:1047C00027BB00BFC436010038B5044618B90F4BEB
:1047D0000F485B6898476168B1F5683F10D0B1F544
:1047E000680F0DD00B4DA9420AD011F46861206802
:1047F00007D0014608480DF00DFC002323606560DA
:1048000038BD14220DF0F1FFF9E700BFB404002019
:104810000D3F01002C5F5CA9141B002008B520B3DC
:104820004368B3F5683F10D101220368BFF35B8F83
:1048300053E8001F002903D143E800200028F7D1E6
:10484000BFF35B8F0DD1002008BD094A93420AD007
:1048500000684FF0FF324FF0FF3306F05BF900289D
:10486000F1D00448F0E70448EEE76FF4E040EBE7EE
:104870002C5F5CA9E98FFFFFEA8FFFFF08B5D8B175
:104880004368B3F5683F10D100220368BFF35B8F24
:1048900053E8001F012903D143E800200028F7D185
:1048A000BFF35B8F0BD1002008BD074A934208D0AD
:1048B000006806F0A1F9F6E76FF4E040F4E703487A
:1048C000F2E70348F0E700BF2C5F5CA9E98FFFFF28
:1048D000EA8FFFFF10B5044618B91D4B1D485B68F1
:1048E00098476368B3F5683F2FD0B3F5680F2CD0B5
:1048F000194A934219D1236803BB18484FF0FF327D
:104900004FF0FF33214606F00DF808B923681BB9B4
:104910000F4B13485B6898472068142200210DF064
:1049200064FF4FF46863636008E0B3F5680F0DD867
:104930003A2B03D040F6BA629342DED120680DF0E4
:10494000C8FB636843F03A03636010BD054AF3E7B0
:10495000B40400200D3F01002C5F5CA9141B002053
:10496000333F01003A00003A08B5064906484023A3
:1049700014220DF042FBBDE808400449044807F04A
:10498000B9BA00BF14160020141B0020CC36010059
:10499000E036010008B50348034A0021121A0AF064
:1049A000D2F908BD10080020EC2300200748084A6F
:1049B000084908B5121A0AF0C8F90748074A084911
:1049C000BDE80840121A0AF0C0B900BF000000207C
:1049D00010080020584501000000002000000020C1
:1049E00058450100F0B5074687B00C4600292ED087
:1049F000D1E901231D48096809F031FAD4E90423FB
:104A0000E1681B4809F02BFAE1691A4809F027FA16
:104A100026460025F36A0493EB1C0393B36A0293C2
:104A2000AB1C0193736A0093326A13486B1C2946CE
:104A3000043509F014FA102D06F11006EAD1216EA2
:104A40000E4809F00CFAA1690D4809F008FA012F87
:104A500005D1EFF305810B48103909F000FA214622
:104A6000384607B0BDE8F04005F0FABD603F0100F0
:104A7000903F0100C03F0100D03F01001440010001
:104A8000244001005340010030BFFFF7FDBF00BFCD
:104A90002DE9F0410B4EDFF8348006EB0807CC1B04
:104AA00005463246084920460DF091FEA0194246BF
:104AB0000021083C0DF099FEAC6707F10800BDE845
:104AC000F08100BF00000000383201000800000043
:104AD0002DE9F843324D804632488946174609F0A1
:104AE000BEF9AB6ADE0622D52F4809F0B8F91124C9
:104AF000AB6A1D0703D52D4809F0B1F91224284DE2
:104B0000AB6A980715D52A4809F0A9F96E6BAB6A0C
:104B1000190642D52748314609F0A1F9B9F1000F2D
:104B200003D0AB6A23F08003AB62132403E01024AC
:104B3000DEE76FF015061A4DAB6ADA0703D51E489B
:104B400009F08DF91424AB6A9B0603D51B4809F0C4
:104B500086F91524124B9A6AD50602D49A6A9007F0
:104B60000AD55B68190507D54146304600F000FBC1
:104B700010B180F309880224094B9A6A920642BF59
:104B80005A6A22F400525A629A6A42F0FF029A620A
:104B900000233B702046BDE8F8836FF01506C4E79C
:104BA00000ED00E0674001007E400100B2400100DE
:104BB000C6400100DF400100F6400100164101003F
:104BC00010B51D4C1D4809F04AF9A36A990130D56A
:104BD0001B4809F044F91E20A36ADA0103D51948DD
:104BE00009F03DF91F20144CA36A1B0303D5164896
:104BF00009F035F92120A36A590303D5134809F0B8
:104C00002EF922200C4CA36A9A0303D5104809F010
:104C100026F92320A36ADB0303D50E4809F01FF908
:104C20002420054A936A6FEA03436FEA13439362B1
:104C300010BD1D20D0E700BF00ED00E0464101009F
:104C40005F410100734101008E410100AD4101004F
:104C5000D3410100EE41010070B5244C06462448C2
:104C60000D4609F0FCF8A36AD90435D5214809F0AE
:104C7000F6F81720A36A1A0503D51F4809F0EFF8C4
:104C800018201A4CA36A9B050FD51C4809F0E7F8B9
:104C9000A16BA36A180407D5194809F0E0F81EB102
:104CA000A36A23F40043A3621920104CA36A590598
:104CB00003D5144809F0D3F81A20A36ADA050DD5F4
:104CC000114809F0CCF81B20084A936A43F47F434B
:104CD000936200232B7070BD1620CBE7A36A9B0460
:104CE000F2D50A4809F0BBF81C20EDE700ED00E022
:104CF0001A42010031420100B2400100434201006A
:104D00005D420100734201008F4201001641010023
:104D10002DE9F0415A4B5F689CB00546C7F3080483
:104D2000002686F31188BFF36F8F02F07F43B3F143
:104D30007F4F06D102F00C03082B13D1514809F024
:104D40008EF8002635464FF00008E31E8DF80780E8
:104D5000092B00F28680DFE803F00A7A7E768484ED
:104D60008484848210074CBF0D460126EBE7464839
:104D7000434C09F074F88DF80780E36A9A0704D56C
:104D8000424809F06CF800242AE0E36A002B01DABB
:104D90003F48F6E7E36A5B00F5D53E4809F05FF867
:104DA0006369AA6943F480736361BFF34F8FBFF3F4
:104DB0006F8F32F8023C626922F480726261BFF345
:104DC0004F8FBFF36F8F03F47F42B2F55F4F21D156
:104DD000DBB2022B1ED129682F4809F040F82C685D
:104DE0009DF807309BB96822294602A80DF0EFFC18
:104DF000099B002E41D0C3F3080222B96FEA532366
:104E00006FEA4323099302A92046FFF7EBFD1CB08C
:104E1000BDE8F0811A4B9A6AD2B232B10DF10702A5
:104E200001212846FFF754FE0FE09A6A12F47F4FE3
:104E300005D00DF107010120FFF70EFF05E09B6A89
:104E4000B3F5803F9FD3FFF7BBFE0446C8E70DF1E3
:104E500007020021E5E70DF107010020ECE70F480C
:104E60008FE70F4B0F49104817F4F87FA4F1100299
:104E700008BF194608F0F3FF85E76FF30803C1E7A1
:104E800000ED00E0D6420100024301001A43010098
:104E90003C4301004B4301006B4301008843010088
:104EA000A8420100BD420100AD430100044B5A6914
:104EB00042F010025A615A6922F008025A617047A2
:104EC00000ED00E0EFF30880EFF3098101B57246D1
:104ED000FFF71EFF01BD00BF002080F31488BFF361
:104EE0006F8F0F4880F3088804F0D0FE00200D4932
:104EF0000860BFF34F8F00F02BF8402080F311883B
:104F000009484FF40861401880F30988EFF31480D2
:104F10000221084380F31488BFF36F8F00F0B4F8C8
:104F2000805F002094ED00E0004D00200749D1F89B
:104F300090200023C2F307221846934200DB7047FB
:104F4000C1F89830C1F8A0000133F6E700ED00E0A9
:104F500008B572B6002383F31388FFF7E7FF144BFD
:104F60004FF0FF32C3F88020C3F88420C3F88820B4
:104F7000C3F88C20C3F89020C3F89420C3F898207D
:104F8000C3F89C20C3F88021C3F88421C3F888218A
:104F9000C3F88C21C3F89021C3F89421C3F8982159
:104FA000C3F89C2162B6BFF34F8FBFF36F8F08BD6C
:104FB00000E100E01EF0040F0CBFEFF30880EFF3F8
:104FC0000980816911F8021C0229FFD001B57246DF
:104FD00009F0BDFE01BD00BF40B2002807DB044A56
:104FE0004109012300F01F00834042F8213070473F
:104FF00000E100E040B200280CDB4309064900F064
:105000001F0020330122824041F82320BFF34F8F3D
:10501000BFF36F8F704700BF00E100E0054B42090E
:1050200000F01F0053F82220012303FA00F0104083
:10503000704700BF00E100E040B2D30754BF023127
:1050400000210028ACBF00F16040074A4FEA41133D
:10505000ACBF00F5614000F00F00DBB2B4BF1354E9
:1050600080F80033704700BF14ED00E0044B054AA0
:1050700023F07F039360BFF34F8FBFF36F8F7047B1
:105080000010000000ED00E008B5FFF7EFFF104B47
:10509000D3F8882022F47002C3F88820D3F888203F
:1050A00042F4A002C3F888204FF04042C3F83422F3
:1050B000BFF34F8FBFF36F8F0023E1EE103AFFF77E
:1050C00069FCFFF773FC00F033F905F08FFB00BFBC
:1050D00000ED00E0818941F0020181814FF47D41C2
:1050E000C0F8C41042F8203C009B42F81C3C0A491E
:1050F000019B42F8183C029B42F8143C21F001014C
:105100004FF0807342F8043C42F8081C0023203A18
:105110000265C367704700BFB53D0000838913F087
:10512000020F124B03D190F8C520D20611D45A6B4E
:1051300042F080425A63D0F8C43019075CBF43F094
:105140000803C0F8C430838943F0020383818020C0
:1051500070475A6B22F080425A63D0F8C4301A0765
:1051600044BF23F00803C0F8C430F0E700EF00E0CC
:10517000094A0346906870B113F1160F806E05D08E
:10518000A0F18002934205D3834203D2814228BF1B
:10519000002070470020704718200020104B9B68AB
:1051A00083421AD1EFF30580B8B9EFF311814022A1
:1051B00082F31288BFF36F8F9A8922F002029A81DC
:1051C000EFF3148323F0040383F31488BFF36F8F8A
:1051D00081F31188BFF36F8F70476FF01500704730
:1051E0001820002008B515460E460022E1EE102AD0
:1051F000EFF3148222F0040282F31488BFF36F8F5E
:10520000BFF36F8F0B4A0C4B9060826F1A6000F0F7
:10521000BFF82C4686F309880020044B98472046A7
:10522000002100220023024C2047000071ED000005
:10523000B53D000018200020301B0020014B10223B
:105240001A61704700ED00E0054B9A699B689A422D
:105250001FBF044A536843F080535360704700BF38
:105260001820002000ED00E0084B9B6883420BD122
:10527000EFF3058343B1064B5A6842F080525A60FF
:105280005A6A22F400425A6206F0B0BA182000208E
:1052900000ED00E023498A6882F8C5E04FF0300055
:1052A0001044EFF3098C80E8F01F1EF0100F03D1BB
:1052B00002F1840080EC108A402080F31288BFF352
:1052C0006F8F194F4FF000668A698A603E60906F59
:1052D000164C206092F9C5E0D06F0023D36780F3AD
:1052E00011881EF0100F03D00023E1EE103A03E006
:1052F00002F1840090EC108AEFF3148323F004038E
:1053000083F31488BFF36F8F04B5104600F040F8A4
:10531000BDE8044002F1300090E8F01F8CF30988EA
:10532000704700001820002004ED00E0301B002032
:10533000044800234021C2180133302B82F80013A7
:10534000F9D1704700E100E008B5EFF30583064AA4
:10535000103B02EBC30152F8330049688847BDE8AF
:105360000840FFF771BF00BFF02E01000148006840
:1053700070470000301B0020024B034A0348012104
:1053800000F07CB80000042000000020F03601008E
:1053900010B50446FFF7C2FEA26E03460548D21AB6
:1053A000C0E90023044B8360BDE81040012100F0F8
:1053B0006FB800BF341B002000000B15084AC2F86C
:1053C00098000B6823F01F03034343F01003C2F857
:1053D0009C308B6843F00103C2F8A030704700BFD7
:1053E00000ED00E02DE9F043DFF8608085B00E4667
:1053F0001F4604464FF00009B14523DA6068D8B172
:105400003FB1411E08421BD17F2819D92368194298
:1054100016D12368019309F0CEFCA36803430393DC
:10542000D8F89050C5F30725D0B2013DA84207D85F
:1054300001A9FFF7C3FF421C09F101090C34DBE7A6
:105440006FF01502104605B0BDE8F08300ED00E0F6
:10545000044B0522C3F89420BFF34F8FBFF36F8F27
:10546000704700BF00ED00E0BFF35F8F024B0022EA
:10547000C3F89420704700BF00ED00E010B5034C66
:1054800001232278FFF7AEFF207010BD1621002007
:1054900008B50B4A00231278FFF7A4FF10F1160F8E
:1054A00007D0084A0021D2F89030C3F3072398426E
:1054B00000DB08BDC2F89800C2F8A0100130F2E786
:1054C0001621002000ED00E02DE9F0435A4B5B4D22
:1054D000D3F890302C68C3F307239C4285B000F2C8
:1054E000A780FFF7C1FF00200C2684421AD1544E3A
:1054F000DFF8449134706846FEF73EFF514C524D40
:1055000080460027B84514D133784B490020D1F8A4
:105510009020C2F307229342C0F28480FFF798FFE5
:10552000002045E0696806FB0011FFF747FF0130E6
:10553000DBE7009800EB07114FEA071CCB6823401C
:10554000B3F5000F4DD00AD8B3F5001F33D0B3F533
:10555000800F3BD0B3F5801F13D00137D2E7B3F1F2
:10556000007F47D0B3F1805F4DD0B3F1807FF4D19D
:1055700050F80C3088684A6809F01DFC40F08870CB
:1055800009E050F80C3088684A6809F014FC40F0D3
:10559000885040F43020CDE901230390D9F89030B1
:1055A0003078C3F30723013B984234D96FF01500DC
:1055B00005B0BDE8F08350F80C3088684A6809F0FF
:1055C000FAFB40F0885040F40020E4E750F80C303B
:1055D00088684A6809F0EFFB40F0007040F4003042
:1055E000D9E750F80C3088684A6809F0E4FB40F0CD
:1055F0008270D0E750F80C3088684A6809F0DBFB0D
:1056000040F48020C7E750F80C3088684A6809F0F9
:10561000D2FB2843BFE701A9FFF7D0FE337801335F
:1056200033709AE7C1F89830C1F8A00001336EE7F3
:105630004FF0FF30BCE700BF00ED00E0FC3601009A
:10564000162100200000F0FF0000021108B50649F5
:10565000064821F00701C1F1005202F5802208F04E
:10566000BBFB002008BD00BF078F0020401B0020AF
:1056700070B54169867A0B4D044659B1437ADB0710
:1056800006D4242303FB0653DB691B689B689847F9
:10569000002363612420214600FB0650BDE87040D2
:1056A0000CF0A6BD1C070020024B242202FB003098
:1056B000704700BF1C070020827A064B242101FBA3
:1056C00002331A6A1B7D1B33801A23F00303B0FBDD
:1056D000F3F070471C07002038B5074B827A24246A
:1056E00004FB0233DB69D3E901240C601568FFF782
:1056F000E3FF04FB005038BD1C0700202DE9F043F8
:1057000085B005466846039190461C460CF0A5FFFF
:10571000DDE90067EFF31189402383F31288BFF3BB
:105720006F8F6B8A002B41D02A8A9A4225D900229A
:105730000023284605F0B0FA0446F0B189F3118839
:10574000BFF36F8F039B002B41D032463B46684628
:105750000CF0A8FFA27A264B242101FB023320463D
:10576000DB691B6803A91D68DDE90023A8476061A8
:1057700070BB2046FFF77CFF24E0698A4B1E6B82DA
:1057800089F31188BFF36F8F2B7D2A8A2C6A1B3314
:1057900023F00303521A02FB0344154B154AEB1A7C
:1057A0009B105343A3722B7DE372CBE789F31188DF
:1057B000BFF36F8F23464246284605F06DFA044634
:1057C0000028BFD10024204605B0BDE8F083636106
:1057D000012300252381039B6382E27A65602946C9
:1057E00004F118000DF001F863692582E360EAE72F
:1057F0001C070020398EE338F8B5124D002424260A
:1058000000B9F8BD00F108024768BFF35B8F52E8AA
:10581000003F591E42E8001CBCF1000FF7D1BFF356
:105820005B8FDBB2012BECD1837AC46006FB0353A0
:1058300044609B6913B198473846E1E7FFF718FFCA
:10584000FAE700BF1C0700200C4B0122C3F84025DB
:105850004FF080434FF08051C3F87825D1F83001E4
:10586000082805D1D1F83411022908BFC3F8382619
:105870000122C3F880250020704700BF00E00140EE
:1058800048B1054B054A1B68B3FBF2F35843044B80
:1058900043F0010318477047A004002040420F0066
:1058A000D0320100BFF34F8F0549064BCA6802F49E
:1058B000E0621343CB60BFF34F8F00BFFDE700BF33
:1058C00000ED00E00400FA0508B5054A054B136039
:1058D00010463F23536004F0C7FA002008BD00BF04
:1058E0004C1B0020FFFF07004FF08043D3F84036E9
:1058F000DB072ED54FF01023D3F8043303F0070352
:10590000072B26D1134A0123C2F80435D2F80034FC
:10591000002BFBD04FF01021D1F8043323F0070304
:1059200043F00403C1F804330023C2F80435094AE4
:10593000D2F80034002BFBD0BFF34F8F0649074B42
:10594000CA6802F4E0621343CB60BFF34F8F00BF1D
:10595000FDE7704700E0014000ED00E00400FA05BB
:105960002DE9F04190F8283003F01F03012B044685
:105970000F4600F128062FD0022B18D08BB394F8D5
:105980002910204609F078FB024678B3304609F02A
:105990005DFC1D4D002834D113693BB33A463146B6
:1059A000204698470346FFF7E1FC2B5024E0818D09
:1059B000C9B209F042FF05460028E0D0304609F0A0
:1059C00045FC024668688368CAB99B6873B13A4669
:1059D0003146BDE8F0411847818DC9B209F014FF86
:1059E000E9E790F8291009F04BFFE4E7FFF7BEFC68
:1059F000054B6FF085021A500020BDE8F081DB688E
:105A0000E4E7D368C9E700BF0C0000002DE9F04FC0
:105A10000B7E33F0800893B004460D46164640F0E6
:105A20008E847AB10846FFF7E7FE6B7EDF0703D46A
:105A30009E0711D52B7E7BB9204613B0BDE8F04FF1
:105A400009F030BC4A7E00F12809900708D5802B68
:105A50000CD12846FFF7D0FE404613B0BDE8F08FCA
:105A6000910700F02784002B40F02484D2072FD523
:105A70002B8A082B40F00684EA681368A3625368F7
:105A8000C9F804302946002009F0D5F9054610B1BF
:105A9000FFF7B2FEEFE0484609F0D8FBE28D70B99F
:105AA000B2B12946A0690BF0F4F80146002800F0D5
:105AB0002D84204613B0BDE8F04F0AF067B83AB124
:105AC000114620460AF05DF80546002800F01E84C5
:105AD000FFF74CFC94F82880B14F002318F0600FBA
:105AE000C351C8F3411307D0032B40F0BD81FFF72A
:105AF0003DFC6FF0850337E0484609F0A7FB94F8BA
:105B00002930002840F04E81013B0A2BEFD801A23A
:105B100052F823F08B5C0000EF5A0000175D000084
:105B2000EF5A0000415B0000EF5A0000EF5A0000FE
:105B3000EF5A0000B15B0000EF5A0000135C000058
:105B4000618D7F29D3D8A38D002BD0D1E38D002B7D
:105B5000CDD118F01F0FCAD194F83030022B05D1E7
:105B6000FFF704FC4FF0FF333B5076E0A069036978
:105B700093F880301B0707D5C9B209F0C9FB8046EE
:105B800028B1002D6CD167E7012384F8393094F8EF
:105B90003030012B0AD1638D43B984F83030FFF7E0
:105BA000E5FB3B58002B00F0858056E00123F4E72D
:105BB000204609F08BF9628DFF2A014697D8E38DC4
:105BC000002B94D194F82830D80690D194F8303036
:105BD000002BC5D02AB1D2B2204609F03BFD0028E7
:105BE000BED0618D94F838308B42D8D0C9B22046EF
:105BF00009F037FD80460028C3D1628D002A14BF0A
:105C00000223012384F83030052120460AF05FF892
:105C1000C5E708F01F08B8F1010F7FF468AFE38D06
:105C2000002B7FF464AF628DFF2A3FF660AFA18D39
:105C3000FF293FF65CAF94F83030022B90D1D2B2FE
:105C4000C9B2204609F020FF10F1020F804640F053
:105C50001081FFF78BFB47F8008065B14FF000081B
:105C60002846FFF7C9FDB8F1000F7FF4F5AEFFF746
:105C70007DFB3B58F3B1484609F0E8FA0346A069BA
:105C8000002B00F04F83802155E3E38D002B7FF440
:105C90002EAF94F83030002B3FF462AF012BA18D72
:105CA00002D100297FF45CAF18F01F080CD0B8F1C6
:105CB000020F16D0E38D002B40F0D782204609F06A
:105CC000DBFA0028D7D1B7E600297FF449AF638D0E
:105CD000012BEFD194F86C3061F3C30384F86C307E
:105CE000E8E7B4F82AA0BAF1000FE3D15FFA81F82F
:105CF0004146204609F0BBFF0346FFF737FB3B5008
:105D0000013302D14FF0FF383BE75246414620466F
:105D100009F0A2FA43E7E38D002B7FF4E8AE628D31
:105D2000A38D022A5FFA83FA11D108F01F085AEAFC
:105D300008087FF4DCAEA0690122190A09F0C5FA4F
:105D400000287FF4D4AE012384F8393027E794F893
:105D5000301000293FF404AF012902D1002B7FF459
:105D6000FFAE18F01F0811D0B8F1020FA2D1002A1F
:105D7000A0D15146204609F065FF0346FFF7F6FA29
:105D80003B500133BED001225146C0E7002B7FF4C7
:105D9000E7AE012A8ED194F86C3043F008039DE7FA
:105DA0000C0000000A2B3FF6A2AE01A252F823F02D
:105DB000DD5D0000EF5A0000EF5A0000EF5A0000CE
:105DC000EF5A0000EF5A0000575E0000EF5A000043
:105DD000E7610000EF5A000011620000E38D022B22
:105DE0007FF485AE94F83030002B3FF4B9AE012B30
:105DF000A18D02D100297FF4B3AE18F01F0811D095
:105E0000B8F1020F1CD04FF0000805F10C0A504603
:105E100009F014FAE38D984218D2FFF7A7FA6FF051
:105E20000B03A1E600297FF49BAE94F86C304FEA97
:105E3000930808F00208C3F3001348EA0308E4E7F4
:105E4000C9B2204609F022FF8046DEE741465046AF
:105E500009F01AF8A3E6B4F82AA018F01F0F4FEAC9
:105E60001A235FFA8AFA09D029462046FFF778FDFF
:105E70008046B8F1000F7FF484AE90E6013B0E2B14
:105E80003FF635AE01A252F823F000BFC95E000014
:105E9000095F0000B35F0000EF5A0000EF5A0000F6
:105EA000AB5F0000AB5F0000EF5A0000EF5A00004C
:105EB000EF5A0000EF5A0000EF5A0000EF5A0000BE
:105EC000EF5A0000F560000005F10C08404609F0AB
:105ED000B5F983462046B4F82EA008F0F7FF20B1AC
:105EE00001287FF404AE616F00E0216F002900F00B
:105EF0002A820A78DA4528BFDA46524528BF524638
:105F0000404608F0B0FF4AE6204608F0DFFF0AF1FD
:105F1000010201900146D2B2204609F075FB80468D
:105F200000283FF4E4AD05F10C0AD0F804B0504667
:105F300009F084F99BF80020824228BF02465946A6
:105F4000504608F090FFD8F80CB0BBF1000F09D113
:105F5000298AE38D99427FF622AEC91A504608F08D
:105F60009DFF1CE6DBF8040083681B6B13B9DBF8AC
:105F700000B0EAE7019998470028F8D0A0F104089A
:105F800058F8041F0029F2D00A78002AEFD05046B2
:105F9000CDE9022109F052F9029A0399904238BFE3
:105FA00082B2504608F05FFFEAE7204608F08EFF15
:105FB0009DE552460321204609F09EF882460028BE
:105FC0003FF495AD09F035F9B4F82EB09AF81530D4
:105FD000C8B99AF814808DF828808DF82930DAF83D
:105FE000103005F10C0A1B88ADF82A30504609F034
:105FF00025F9C3455A4628BF4246824228BF024679
:106000000AA950467DE7DAF808208DF81530C14B13
:106010001340C14A4FF0000893428DF8148058D1C4
:10602000102106A80BF0EBF8021EFFF660AD0AA9DE
:10603000102ADFF8ECE20DF1180C084628BF1022F8
:10604000424501F1020133D8920002325FFA82F830
:106050008DF81480034605F10C0A5046029309F0AE
:10606000EDF8D845424628BF5A46904228BF104610
:1060700002288346804628BF4FF0020B5A46A8EB01
:106080000B0805A9504608F0EEFE4FEA58030193AD
:10609000029B9B4603EB5802934521D118F0010F58
:1060A0003FF47DAD019A995C504608F0E5FE76E537
:1060B0001CF8013B4FEA131A03F00F031EF80AA065
:1060C0001EF8033001F802AC01F8013C08F10108A8
:1060D000B6E79AF81480DAF810308DF81480BAE731
:1060E0001BF8011B5046CDE9023208F0CDFEDDE978
:1060F0000232D1E7204608F0E9FE38B101282CD061
:10610000FFF734F96FF085033B5048E5236F002B10
:1061100000F019815B88B3F5007FF1D97F4B0A93BA
:1061200000238DF82C30E36C04F14C0B9B4508BF29
:106130000023BDF82A10A3B15A7D0F2A08D11A7D79
:106140000A44ADF82A209DF82C2001328DF82C202D
:10615000226D934203D01B68EBE7636FD7E7BDF86E
:106160002A10019105F10C0A504609F067F8B4F8BD
:106170002E800199884528BF8846804528BF8046E3
:106180004246052A28BF05220AA95046019208F076
:106190006AFE019AB8EB02083FF401ADE36C5B457F
:1061A0003FF4FDAC002B3FF4FAAC5A7D0F2A14D11A
:1061B0001A7D19690193424528BF4246504608F0AE
:1061C00052FE019B1A7D424594BFA8EB0208A8EB42
:1061D0000808B8F1000F3FF4E2AC226D93423FF49F
:1061E000DEAC1B68DEE794F83030002B3FF4B8AC2F
:1061F000E38D012B7FF47BAC05F10C08404609F0E0
:106200001DF800283FF409AE94F8381040464CE7DA
:1062100008F01F08B8F1010F7FF4A2AC204609F086
:1062200007FA00283FF49CACB4F82CA0BAF1FF0F99
:106230003FF65DAC43681B795345FFF458AC5FFAF9
:106240008AF30F2B3FF653ACE38D012B7FF44FAC59
:1062500005F10C08404608F0F1FF00283FF4DDADE1
:1062600004EB0A0393F83A10D0E7484608F0EEFF33
:1062700018B92846FFF7C0FA20E52946204609F05C
:1062800085FC08B1284603E4A069036993F88010EF
:1062900011F004017FF4D0AB0AF00FFD0546002891
:1062A0003FF4E9AC0146204609F070FC00283FF4B9
:1062B000C3ABE7E752077FF5DEAC002B3FF4C9AB79
:1062C0002846FFF799FA94F83930002B3FF4C4AB15
:1062D00094F82930052B05D1618DA069C9B209F068
:1062E00017F8064694F82930032B09D1638D022B49
:1062F00006D1A18DA0690022090A08F0E6FF064632
:10630000002384F83930B046FFF7A6BB6FF00B06C8
:10631000B1E400BF00FF020000030200050F05000A
:1063200004450100E38D002B3FF4ADAC16F10C01E8
:1063300018BF0121C9010AF0C5FBFFF77DBB6FF053
:106340000408FFF789BB6FF015081AE40B78062BD9
:1063500010B414D10369D3F89C20EFF311844023C7
:1063600083F31288BFF36F8F4B6800201860506A68
:1063700060B9C2E9083384F31188BFF36F8F054811
:106380005DF8044B002200230BF094BE03605362BF
:10639000F1E700BFD00600202DE9FF4140264FF075
:1063A000FF335E484FF0FF3201A904F04FFB039B1F
:1063B0001B69D3F89C40236A93B1EFF3118286F3F3
:1063C0001288BFF36F8F216A29B1606A0B6823625C
:1063D000814208BF636282F31188BFF36F8FC9B92E
:1063E0009DF80430062BDAD0072BD8D801A252F83A
:1063F00023F000BF476400003B64000067640000B6
:106400004D6400008B640000816400009F63000005
:10641000156500000B7ED1F81E205D06204609D1CF
:10642000FFF7F4FA02460028C5D00721204609F0FC
:106430004EFCC0E709F0F8F9F4E7002201212046FC
:1064400009F045FCABE700221146F8E794F86C3000
:1064500043F0040301A984F86C30204608F080FF63
:1064600000220321EBE794F86C3023F0040301A928
:1064700084F86C30204608F073FF00220221DEE72A
:1064800001A9204608F06CFF89E794F86C30A769F1
:1064900023F0040384F86C30D7F808803B69BFF31D
:1064A0005B8FD3F8A030BFF35B8F9A072FD5D8F856
:1064B0003C3038469847D8F8243000213846984771
:1064C000D8F84030054638469847ADB929462046A9
:1064D00009F0C7F8054678B9A0690AF00DFC831EDB
:1064E0005842584194F86C3084F8305023F06803D7
:1064F00043EA401384F86C3000220421204609F05E
:10650000E6FB002D3FF44BAF2A46072197E74FF0FB
:10651000FF35F1E7029A062191E700BFD00600207F
:1065200030B589B000220023CDE9062300246FF0A6
:106530000703CDE90334CDE901441A4B1A4900940D
:106540004FF48062194804F0D1FE194917480BF046
:106550000AFF184B18498B4207D3184B18490020E3
:106560008B4210D3002009B030BD03F11402BFF3F9
:106570005B8F52E8000F42E80045002DF9D1BFF3D0
:106580005B8F1833E7E703F11402BFF35B8F52E828
:10659000004F42E80005002DF9D1BFF35B8F18339F
:1065A000DEE700BF9963000000460020600D002078
:1065B0007D3E0100E00700201008002010080020A8
:1065C0001008002038B502460949054680690AF0DE
:1065D000F9FB044648B985F83800284608F017FF4B
:1065E000044610B1A8690AF020FC204638BD00BF5F
:1065F0004D63000070B5084C084E0546B44202D306
:106600000024204670BD636828461968FBF7ABF884
:106610000028F6D01834F1E7E00700201008002029
:106620002DE9F047064617461D46F9B16FF0850083
:10663000BDE8F087D4F8048025B1A5F1040A5AF822
:10664000041F41B9D8F800103B460022304609F03B
:106650002EF930B1ECE7D8F80000FBF784F80028F9
:10666000EDD118344C45E5D30020E1E7014CDFF8CB
:106670000890F7E7E00700201008002070B50646F4
:10668000EFF31181402383F31288BFF36F8F1B4D0B
:106690002A6881F31188BFF36F8F526892F86C20DB
:1066A000D20705D4BDE870402122002304F062BD6A
:1066B000EFF3118283F31288BFF36F8F2C682CB134
:1066C000696823682B608C4208BF6B6082F3118875
:1066D000BFF36F8F44B1606804F10801C369984744
:1066E000074821460BF096FC2B6833B13046002258
:1066F000BDE87040002304F009BD70BD541B0020AC
:10670000EC05002030B585B0CDE900120546002229
:106710001448002303A904F005F90246E8B9039BD5
:10672000DDE900015D60083383E80300EFF31180C9
:10673000402383F31288BFF36F8F039B1A600A4ACA
:10674000516861B9C2E9003380F31188BFF36F8FDC
:1067500006480022002304F0D9FC05B030BD0B60D0
:106760005360F1E7EC050020541B002008000020D6
:1067700038B54B78046945682069202B08D0222B56
:1067800019D0FEF7F3FD114B6FF085021A5010E09F
:10679000CB88072BF5D1D3681A6842609A880281AA
:1067A0009B79837209F0B4FA22460821284609F041
:1067B0009CFA002038BD4B888381C3F3400203F06C
:1067C00001030276437622460921EFE70C00000020
:1067D00008B513464A78212A14D133B9FEF7C6FD0D
:1067E0000B4B6FF00B021A500AE0CA880169096965
:1067F000072A28BF0722043103F10C0008F033FBFD
:10680000002008BDFEF7B2FD014B6FF08502EAE7FC
:106810000C00000073B504698DF807104025EFF3F4
:10682000118685F31288BFF36F8F0122E06B0DF1A3
:10683000070107F096FC86F31188BFF36F8F0128DC
:1068400010D00BF08AFDA8B10E4BBFF35B8F012275
:1068500053E8001F002903D143E800200028F7D1A6
:10686000BFF35B8F2122002304F1480004F04EFCAB
:1068700002B070BDA37E002BE6D0002121200BF0DA
:106880000AFECCE75C1B002038B505690E49EB6BAE
:106890000024C3E90144DC606B6B05F14800C3E9E7
:1068A0000144DC600BF040FD05F1780007490BF076
:1068B0000FFD074905F124000BF00AFD284609F0F9
:1068C00027FA204638BD00BFDFFE00002902010084
:1068D0007B01010010B504690346204640F8143BD3
:1068E000012200210BF0A0FC04F1240002490BF06E
:1068F000EFFC002010BD00BF2706010073B5134652
:106900004A7800690A2A09D00B2A35D0092A254C71
:106910001BD0FEF72BFD6FF085032BE04988036940
:106920000A0A5C6811F0FF0108BF83F83420E368AD
:1069300023B192009847002002B070BDFEF716FD0B
:10694000184B6FF085021A50F5E705694A886D68A3
:10695000AD68110AD2B2002DF0D0022903D003296C
:1069600001D00129D5D1DE6800961B8AA8470346CD
:10697000FEF7FCFC2350DEE749880129DED8436896
:106980001B689B79002BD9D0036993F835208A4284
:10699000D1D05A68C9B283F835105369002BCAD0D8
:1069A0009847C8E70C00000073B514464A780069A0
:1069B000013A0B46052A07D8DFE802F020034D060E
:1069C000065CDA88012A06D0FEF7D0FC374B6FF060
:1069D00085021A503AE059880369C9B231B15B683F
:1069E0001B69002BF0D09847810801E093F8341020
:1069F000C9B204F10C0008F03FFA27E05A88056993
:106A0000DB886D68110A0229D2B20AD0032908D0A6
:106A1000012906D06FF08503FEF7A8FC234A135026
:106A200014E0E66800966D68A8470028034610DD6C
:106A3000228A618A6069891AE268121A891A99425F
:106A400028BF194604F10C0008F007FA002002B034
:106A500070BDE1D1DEE75A88002AB5D1DB88012B71
:106A6000B2D143681B689B79002BADD0036993F8C2
:106A70003510BEE75A88120A212A0DD0222AA3D146
:106A80000169DA88CB6889689A4228BF1A4604F1FE
:106A90000C0008F0E8F9D9E74268DB8811684A7A07
:106AA0009A4228BF1A460931F1E700BF0C000000E6
:106AB00010B5094C0A44914200D110BD11F8013BB8
:106AC000584003090001E35CC0B2434018091B01B0
:106AD000205CDBB25840EEE71D450100F8B5876841
