:10100000805F0020C14C000021EB0000AD4C0000CF
:10101000AD4C0000AD4C0000AD4C000000000000E5
:101020000000000000000000000000009D4D0000D6
:10103000AD4C0000000000007D500000AD4C0000F1
:1010400031510000218F000031510000315100006A
:101050003151000031510000315100003151000088
:101060003151000031510000B189000031510000C0
:101070003151000031510000315100003151000068
:101080003151000031510000315100003151000058
:10109000C18F00003151000031510000315100007A
:1010A0003151000031510000315100003151000038
:1010B0003151000031510000315100003151000028
:1010C0003151000031510000315100003151000018
:1010D0003151000031510000315100003151000008
:1010E00031510000315100003151000031510000F8
:1010F00031510000315100003151000031510000E8
:10110000014B1B685B68184700000020014B1B68FF
:101110009B68184700000020014B1B681B6918479B
:1011200000000020014B1B685B691847000000208D
:10113000014B1B689B69184700000020014B1B688E
:10114000DB69184700000020014B1B681B6A184729
:1011500000000020014B1B689B6A1847000000201C
:1011600030B4044C9DF8085024680295E468A44605
:1011700030BC604700000020171700001D1700005A
:101180001F17000045170000231700004F1700002D
:1011900029170000591700002F17000065170000DD
:1011A0003B1700003F170000311700003717000001
:1011B000551700005F17000030B50346114890F93D
:1011C0001C209A4219DD90F924209A4217DA9A1AC3
:1011D000846AA05C0C4A15569D420DD00E3200293F
:1011E00018BF01309442C0B206D129B1013BDBB235
:1011F000012B01D80130C0B230BD0D20FCE700202A
:10120000FAE700BF100800201430010008B5054BB4
:1012100093F91C30984203DAFFF7CEFF024B1B56BE
:10122000184608BD100800201430010008B5184BFE
:1012300093F82C20FAB9012283F82C20154A126861
:10124000A2F10800082803D813490141C90709D5AC
:10125000911F092910D9013212D04FF4DF71742087
:1012600000F034F80D4A9A62D8221A6283F82420DA
:1012700008229A611A7708BD094A0A41D207ECD4BC
:10128000084A9A62D8221A6283F824200422F0E7DE
:1012900010080020C0090020DEFEFFFF4F300100D3
:1012A000EEFCFFFF22300100BFF34F8F0549064BD4
:1012B000CA6802F4E0621343CB60BFF34F8F00BFF4
:1012C000FDE700BF00ED00E00400FA051FB572B6AF
:1012D000134B5D6895B9FFF7E7FF2346B2FBF6F2C3
:1012E0005C1C002AF9D104AEDCB256FA83F303F891
:1012F0000C2C0A2234B901A8A847ECE702460023C7
:101300000A26EDE7631E04AEDCB256FA83F3B0FBA7
:10131000F2F602FB1600303003F80C0C3046E9E719
:10132000880900204FF08052034BD2F83011196029
:10133000D2F834215A607047C009002081F0004182
:1013400002E000BF83F0004330B54FEA41044FEAAA
:10135000430594EA050F08BF90EA020F1FBF54EA45
:10136000000C55EA020C7FEA645C7FEA655C00F0E1
:10137000E2804FEA5454D4EB5555B8BF6D420CDDB2
:101380002C4480EA020281EA030382EA000083EA35
:10139000010180EA020281EA0303362D88BF30BDD5
:1013A00011F0004F4FEA01314FF4801C4CEA11312B
:1013B00002D0404261EB410113F0004F4FEA03338A
:1013C0004CEA133302D0524263EB430394EA050F15
:1013D00000F0A780A4F10104D5F1200E0DDB02FA84
:1013E0000EFC22FA05F2801841F1000103FA0EF218
:1013F000801843FA05F359410EE0A5F120050EF1DE
:10140000200E012A03FA0EFC28BF4CF0020C43FA0E
:1014100005F3C01851EBE37101F0004507D54FF01B
:10142000000EDCF1000C7EEB00006EEB0101B1F56B
:10143000801F1BD3B1F5001F0CD349085FEA3000B1
:101440004FEA3C0C04F101044FEA445212F5800FBC
:1014500080F09A80BCF1004F08BF5FEA500C50F159
:10146000000041EB045141EA050130BD5FEA4C0C3C
:10147000404141EB0101013C28BFB1F5801FE9D299
:1014800091F0000F04BF01460020B1FA81F308BFBC
:101490002033A3F10B03B3F120020CDA0C3208DD88
:1014A00002F1140CC2F10C0201FA0CF021FA02F163
:1014B0000CE002F11402D8BFC2F1200C01FA02F1D3
:1014C00020FA0CFCDCBF41EA0C019040E41AA2BFF8
:1014D00001EB0451294330BD6FEA04041F3C1CDAC0
:1014E0000C340EDC04F11404C4F1200220FA04F0E0
:1014F00001FA02F340EA030021FA04F345EA03018A
:1015000030BDC4F10C04C4F1200220FA02F001FA4B
:1015100004F340EA0300294630BD21FA04F02946CD
:1015200030BD94F0000F83F4801306BF81F4801166
:101530000134013D4EE77FEA645C18BF7FEA655CD9
:1015400029D094EA050F08BF90EA020F05D054EAAB
:10155000000C04BF1946104630BD91EA030F1EBFB0
:101560000021002030BD5FEA545C05D140004941B4
:1015700028BF41F0004130BD14F580043CBF01F5A7
:10158000801130BD01F0004545F0FE4141F470018D
:101590004FF0000030BD7FEA645C1ABF1946104668
:1015A0007FEA655C1CBF0B46024650EA013406BF69
:1015B00052EA033591EA030F41F4002130BD00BF28
:1015C00090F0000F04BF0021704730B54FF48064E5
:1015D00004F132044FF000054FF0000150E700BF66
:1015E00090F0000F04BF0021704730B54FF48064C5
:1015F00004F1320410F0004548BF40424FF00001B2
:101600003EE700BF42004FEAE2014FEA31014FEAF4
:1016100002701FBF12F07F4393F07F4F81F0605143
:10162000704732F07F4208BF704793F07F4F04BF8E
:1016300041F40021704730B54FF4607401F000456B
:1016400021F000411CE700BF50EA010208BF7047CB
:1016500030B54FF000050AE050EA010208BF7047BC
:1016600030B511F0004502D5404261EB41014FF425
:10167000806404F132045FEA915C3FF4D8AE4FF02D
:1016800003025FEADC0C18BF03325FEADC0C18BF10
:10169000033202EBDC02C2F1200300FA03FC20FA61
:1016A00002F001FA03FE40EA0E0021FA02F11444AE
:1016B000BDE600BF53B94AB9002908BF00281CBFC6
:1016C0004FF0FF314FF0FF3000F00CB8ADF1080CD7
:1016D0006DE904CE00F059F8DDF804E0DDE90223FD
:1016E00004B07047704700BF08B5FFF71BFEBDE8A8
:1016F0000840FFF79BBD801A00F3070038B540B2E1
:101700000D4659B21446FFF781FD002328706B7017
:10171000204440B238BD002303607047704700206A
:1017200070474FF0FF3070474FF0FF307047704701
:101730004FF0FF30704700207047002070470023B3
:10174000037070479DF800300022FFF7D4BF4FF0C0
:10175000FF307047002070474FF0FF3070474FF068
:10176000FF307047704710F8012B11F8013B012A38
:1017700028BF9A42F7D0D01A7047034613F8012BBE
:10178000002AFBD1181A013870472DE9F0478C4622
:101790008E46089E154604461946002B40F0D08020
:1017A000724547D9B2FA82F74FB1C7F120030EFA5A
:1017B00007FC20FA03F3BD4043EA0C0CBC404FEA9F
:1017C000154EA8B2BCFBFEF8230C0EFB18CC08FB90
:1017D00000F943EA0C43994528D9EB1808F1FF3288
:1017E00004D2994502D9A8F102022B44A3EB0903C4
:1017F000A4B2B3FBFEFC0EFB1C330CFB00F044EA6E
:101800000344A04214D92C190CF1FF3304D2A04296
:1018100002D9ACF102032C44241A43EA02401EB15F
:10182000FC40002334607360BDE8F0874246DDE78A
:101830006346F1E7002A79D0B2FA82F3002B3FD059
:101840001946C1F1200302FA01F52EFA03F20EFA4D
:1018500001FE20FA03F343EA0E034FEA154E00FAA5
:1018600001F4B2FBFEFCAFB20EFB1C201A0C0CFB09
:1018700007F842EA004290455AD9AA180CF1FF3005
:1018800004D2904502D9ACF102002A44A2EB08022E
:101890009BB2B2FBFEFC0EFB1C220CFB07F743EADB
:1018A00002439F4246D9EB180CF1FF3204D29F420B
:1018B00002D9ACF102022B44DB1B42EA004202E0F7
:1018C000AEEB020301224FEA154EAFB2B3FBFEFCB2
:1018D000200C0EFB1C330CFB07F840EA0343984531
:1018E0002AD9EB180CF1FF3004D2984502D9ACF19B
:1018F00002002B44A3EB0803A4B2B3FBFEFC0EFBD7
:101900001C330CFB07F744EA0344A74216D92C19F1
:101910000CF1FF3304D2A74202D9ACF102032C44EC
:10192000E41B43EA00400F46114678E71F2188E791
:101930006046ABE76246BFE76046DBE76346EFE73A
:10194000734506D916B9002108466DE7C6E9000EB1
:10195000F9E7B3FA83F787B9734501D3824207D811
:10196000841A6EEB030301209C461EB900215BE73D
:101970003846FAE7C6E9004CF8E7C7F1200CBB404F
:1019800022FA0CF51D4320FA0CF12EFA0CF30EFA94
:1019900007FE41EA0E014FEA154900FA07F4B3FBCE
:1019A000F9F81FFA85FE09FB18300B0C08FB0EFA3C
:1019B00043EA00439A4502FA07F240D9EB1808F1CE
:1019C000FF3004D29A4502D9A8F102002B44A3EBC0
:1019D0000A0389B2B3FBF9F809FB183308FB0EFEC2
:1019E00041EA03418E452CD9691808F1FF3304D22E
:1019F0008E4502D9A8F10203294443EA0040A0FB26
:101A00000298A1EB0E014145CE46434602D306D1D2
:101A10004C4504D2B9EB020E68EB05030138002EE9
:101A2000A4D0B4EB0E0261EB030101FA0CFC22FA24
:101A300007F34CEA0303F940C6E9003196E7404654
:101A4000C5E74346D9E70000F8B5164F3D68854223
:101A5000044625D0002D0BDB50225543124E13486F
:101A600005F1440131440BF01AFE2E4486F8410082
:101A7000002C3C6010DB50230B495C430B1993F89E
:101A800041304BB14434094821440BF011FEBDE80C
:101A9000F84006480BF0C4BD044800F049FCF6E7E6
:101AA000F8BD00BFD800002094130020741200205D
:101AB0002DE9F043D5B00BF058FD0646EFF3118445
:101AC000402383F31288BFF36F8F2C494FF4A07229
:101AD00004A810F05DFD2A4BD3F80080294B1F6845
:101AE00084F31188BFF36F8FDFF8C89004AC002532
:101AF000237823B3236B4EF66022F31A93421ED849
:101B0000B3F57A7F35D294F838309A0733D41E4A29
:101B100013F0010F1D4B18BF1346626A0392A26AAD
:101B2000029294F83920019294F940200092184AC8
:101B300061681848454508BF4A460BF055FE013517
:101B4000042D04F15004D3D1134B1449002F18BFB6
:101B50001946134BBFF35B8F1B68BFF35B8F1148B4
:101B60003A460BF041FE104855B0BDE8F0430BF08B
:101B70003BBE0E4BD1E70E4BCFE700BF94130020C6
:101B8000D8000020901300209E37010097370100F5
:101B9000AA370100BE370100B2370100B937010092
:101BA000D4140020ED3701001238010090370100F5
:101BB00086370100A337010073B50E6805460C4651
:101BC00030461F49FFF7CFFD18B91E480BF00CFE39
:101BD00006E01D493046FFF7C6FD20B9FFF768FF54
:101BE000012002B070BD19493046FFF7BCFD20BB93
:101BF000022DF6D1656816492846FFF7B4FD50B1AD
:101C0000102201A928460AF007FB019B1B7803B9A3
:101C100008B91048DAE7EFF31183402282F3128803
:101C2000BFF36F8F0C4A106083F31188BFF36F8F7F
:101C30000A4861680BF0D8FDD2E70020D1E700BF69
:101C40001C38010021380100563801005C380100C1
:101C5000B937010061380100901300208B38010072
:101C600030B50378022B95B004D1164D0AA807F0C1
:101C700089FB08B115B030BD9DF82840202CF5D85F
:101C800022460DF12D0101A810F082FC9DF82A30AA
:101C90008DF824405B428DF825300B48002200234C
:101CA00001A910F0E8F80028E0D0BFF35B8F55E8F9
:101CB000003F013345E80032002AF8D1BFF35B8FC3
:101CC000D4E700BFD4140020A80600202DE9F04777
:101CD000DFF82882B4B04FF0FF3213A94FF0FF3382
:101CE000804808F0A7FD0BF040FC9DF86C100646FC
:101CF0000BAA13A80BF0FBFC0028ECD0EFF3118922
:101D0000402383F31288BFF36F8F7748DDF830A04C
:101D1000D8F800C04FF0FF32134600240746017880
:101D2000002956D041688A4534D1502303FB0474FE
:101D30009DF84B3084F839309DF86D3084F8403090
:101D4000237A9DF82D209DF84A10266384F83820C8
:101D500033B194F83A30E06BCB1A50FA83F3E36373
:101D600084F83A10D10702AB58BF666303AA0BA9E7
:101D700004F108000BF0F1FCE51B5C4B2D115D43F9
:101D80005B4B1B688246002B43D06268934237D17D
:101D900028463BE0A44521D10134042C00F1500039
:101DA000BDD1581C02D1002A25DB1346502202FB6C
:101DB00003F57C190021204610F0F8FB05F108001E
:101DC000012338447B55C4F804A026630BF0C1FC02
:101DD000AEE7B3F1FF3F08BF2346DDE7002A08DB8B
:101DE000502505FB0275016B2D6BA94238BF2246B9
:101DF000D2E72246D0E789F31188BFF36F8F6AE7F5
:101E0000D8F800309D421DD14FF0FF30FFF71CFE87
:101E100018E0D8F800309D4214D0002BB8DB5022D7
:101E20005343FA18FB5C002BB2D0136BF61AB6F5CD
:101E30007A7FADD292F83830DA0703D594F838308B
:101E4000DB07A5D562680692626A0792A26A0892C9
:101E5000E26B099294F840208DF8282094F83820FD
:101E60008DF829205222D8F800308DF82A2089F3E5
:101E70001188BFF36F8FAB427FF42DAF06A801F03E
:101E80000BFB00F0E3FE1B490B68984206D01CA830
:101E900000F0C2FE18481CA90BF0F4FB01F0F4F8A6
:101EA00010B1154800F044FABAF1010F03D11248FD
:101EB0000BF0B6FB0FE7029A002A3FF40CAF1CAC04
:101EC00011AB03A90C48009400F066FADDE91C018F
:101ED00001F0FCFC029A084811AB214601F086FA99
:101EE000F9E600BFA806002094130020CDCCCCCC8E
:101EF000901300207012002074120020D8000020DF
:101F0000F8B51D4E0025002140F6CD4010F0A4F993
:101F100001350BF02AFBEFF31187402383F312887E
:101F2000BFF36F8F3368002B21DB5021134A4B43E3
:101F3000D118D45C34B10B6BC01AB0F57A7F2CBFCA
:101F400000240124214687F31188BFF36F8F0C48CA
:101F50000BF018FB74B90B4B0B4A6B43B2EBB30F8E
:101F60002CBF0121002109480BF00CFBCBE700211D
:101F70000C46E8E70021F6E7D80000209413002083
:101F800038330100CDCCCCCCCCCCCC0C30330100E0
:101F900000B599B0184A194806210BF007FB164AFC
:101FA000164808210BF002FB00F012FE14496846A7
:101FB00000F032FE694613480BF04DFB124801F069
:101FC00081FA124801F034FD1149012001F080FA34
:101FD00038B1104801210BF0D5FA002019B05DF896
:101FE00004FB07F019FA0028F3D10B4810F04DF963
:101FF0000A4810F04AF9F0E7010016000C2C010025
:10200000701200207412002028330100AD3000004F
:10201000611C000030330100080B0020400A002042
:10202000D0ED016A90ED006A90ED027A66EEA67A34
:1020300046EE067A47EE077AF1EEE77ADFED0F5AC1
:10204000F4EEE57AF1EE10FA16DD9FED0D5AF0EEA2
:10205000E75AF4EE455AF1EE10FA0DD8C6EE275ABB
:1020600086EEA76AC7EE276AC0ED005A80ED016AC6
:10207000C0ED026A0120704700207047BD378635E9
:10208000FFFF7F7FF0EE407A9FED0C7AF0EEE76A7B
:10209000F4EE476AF1EE10FAB0EE600A0DD8F4EEF5
:1020A000E07AF1EE10FA08D4F4EEC17AF1EE10FA0B
:1020B000D4BFB0EE670AB0EE410A7047FFFF7F7FE2
:1020C00008B590ED007ADFED147AB0EEC77AB4EE81
:1020D000677AF1EE10FA02460B4611D890ED017ABC
:1020E000B0EEC77AB4EE677AF1EE10FA08D890ED48
:1020F000027AB0EEC77AB4EE677AF1EE10FA05D93B
:1021000003CB106051601868906008BDFFF788FF2E
:102110000028FAD1F4E700BFFFFF7F7F10B534221B
:10212000044600212C3010F041FA01232360104BAB
:102130006360104BA360104BE360104B23614FF0C2
:10214000804363610E4B0F4AA3614FF07E53E361FE
:1021500023626262A3640C4AA26240F201130B4A3A
:10216000A4F854304FF07F53A2632264A36510BDDE
:10217000295C0F3D40DAFF380040D0440000C841E0
:102180000000A0420000F0419A99193E000080BF73
:1021900010B5044698B06846FFF7C0FF2368012BCE
:1021A00007D060226946204610F0F2F9002018B0EE
:1021B00010BDD4ED017AF5EEC07AF1EE10FA08DD2B
:1021C0009FED527AF0EEE77AF4EE477AF1EE10FAEC
:1021D00001D9019B6360D4ED027AF5EEC07AF1EE8D
:1021E00010FA08DD9FED497AF0EEE77AF4EE477ACF
:1021F000F1EE10FA01D9029BA360D4ED037AB7EE99
:10220000007AF4EEC77AF1EE10FA08DD9FED3F7A1E
:10221000F0EEE77AF4EE477AF1EE10FA01D9039B7B
:10222000E36094ED040A9FED3A1ADFED3A0AFFF7F6
:1022300029FFDFED390A84ED040AB3EE041A94EDA8
:10224000050AFFF71FFF9FED351A84ED050AF7EE2B
:10225000000A94ED060AFFF715FF9FED311ADFED36
:10226000310A84ED060A94ED070AFFF70BFF9FED94
:102270002E1ADFED290A84ED070A94ED080AFFF70C
:1022800001FF9FED271ADFED230A84ED080A94ED84
:10229000090AFFF7F7FEDFED200A84ED090AB3EE25
:1022A000041A94ED0A0AFFF7EDFE9FED1F1A84ED64
:1022B0000A0A94ED0B0AFFF7E5FEDFED1C0A84ED38
:1022C0000B0A94ED160AFFF7DDFE94F8543084ED06
:1022D000160A003B18BF012384F8543094F8553097
:1022E000003B18BF012384F855300CA904F13000DD
:1022F000FFF7E6FE0FA904F13C00FFF7E1FE04F151
:10230000480012A9FFF7DCFE012050E7FFFF7F7FA6
:102310000000FA43CDCCCC3D000000000000FA44A0
:1023200000007A440AD7233C00004842CDCC4C3D03
:1023300010B500230022174983674FF0FF4443671D
:10234000036780F87C20C0F88830C0F88430C0F87B
:102350008030C0F88C3080F8B42080F81821C0F8A4
:102360009040C0F89C10C0F8A830C0F89440C0F865
:10237000A010C0F8AC30C0F89840C0F8A410C0F865
:10238000B030C0F8D030C0F8D430C0F8E030C0F879
:10239000E42010BD000080FF2DE9F04393B0044617
:1023A0001A9D884616460021282228461F4610F00E
:1023B000FDF894F8183185F82430002E00F0F882EA
:1023C00007EE906A94ED037AD4ED015A94ED026A17
:1023D000F8EE677A06AE87EE873AEC4632466946F3
:1023E000002358F8230007EE100AF8EEC76A37F901
:1023F000130086EEA77A0133032B27EE257AA1EC92
:10240000017A07EE100AB8EEC77A27EE067AA2EC38
:10241000017AE6D194F8B430A3B9634603CBC4F88B
:10242000B8001868C4F8BC103346C4F8C00003CB29
:10243000C4F8C4001868C4F8C8100123C4F8CC005C
:1024400084F8B430DFEDE67AD4ED345A94ED356A91
:1024500063EE277AF7EE002A37EEA27A04F18002C3
:10246000C7EE874A04F18C0160461346D3ED0E7A1D
:10247000B0EC015AD3ED116A35EE677A47EE247A53
:10248000B6EC017AC3ED0E7A75EE677A37EE664ADE
:1024900067EEA77A44EE246A47EE835AD3ED007ABA
:1024A000C3ED116A43EE057A37EE667AE3EC017A02
:1024B00027EE077A994207EE036AD7D1D4ED237A43
:1024C0009FEDC85AC4ED345A73EE277A84ED356A0D
:1024D000F4EEC57AF1EE10FAC4ED237A00F1A8808B
:1024E0000026F2EC016A86EEA77A42F8046CD2ED7F
:1024F000034AB4EEE47AD2ED064AF1EE10FAB4EEF5
:10250000E47A48BF82ED037AF1EE10FAC8BF82ED9B
:10251000067A92ED097A37EE267A914282ED097AAF
:10252000DFD194ED387AD4F8E430C4F88C6077EEDB
:10253000877A0133F4EEE27AF1EE10FAC4ED387ADC
:10254000C4F8E43074D40FABD4ED166A04F19002F1
:1025500004F19C0818464FF0010ED2ED064A84EEB5
:10256000A77A114604320EF0010ED1ED004AA0EC1C
:10257000017A91ED037A37EE647AB4EEE67AF1EE01
:1025800010FAC8BF4FF0000E9045E6D1C5EEA76A1D
:10259000F1EEE66A86EE277AC4ED366AF1EEC77A86
:1025A0009FED917AC4ED377AF4EEC76AF1EE10FA36
:1025B00040F101829FED8D7AF4EEC77AF1EE10FAC8
:1025C0004CBF01200020BEF1000F11D094F855201F
:1025D00072B194F87C1004F17002002940F0ED8192
:1025E00003CB2067186851600123906084F87C3029
:1025F0007F4BC4F89C304FF0FF42C4F8A030C4F8C1
:10260000A430002384F818E1C4F89020C4F8A8602E
:10261000C4F89420C4F8AC60C4F89820C4F8B06042
:10262000C4F8D060C4F8D460C4F8E060C4F8E43002
:1026300004F1700203A905F1080304F17C00B2EC77
:10264000017AFCEC017A77EEC77A9042E3EC017AEA
:10265000E1EC017A67EE837AC3ED027AEFD1B7F944
:102660000030D4ED026A07EE103AB7F9023003EEFB
:10267000903AB7F90430F8EEE33AB8EEC77A63EE71
:10268000A63A07EE903A27EE267ACDED0A3AF8EE12
:10269000E77A63EEA33A47EE073A67EEA67A8DED46
:1026A000097A47EEA73ACDED0B7AF1EEE33ADFED8A
:1026B000567AF4EEE73AF1EE10FA40F3B681DFED28
:1026C0004D7AF4EEE73AF1EE10FA4CBF01270027FD
:1026D00094F86C30DDED031A9DED044A9DED052A5A
:1026E000002B40F0A481F6EE007AF4EEE73AF1EE2A
:1026F00010FA0CDD09AB03CB20661868A066616692
:1027000004F160000123FFF78BFC84F86C3094F82F
:102710005430002B40F0D28104F1300204F13C032C
:1027200092ED017AD2ED007AD3ED006A24EE077AB9
:1027300001EEA77AD2ED027A02EE277AD3ED017A82
:1027400064EE277A41EEA67AD3ED026A42EE267A4B
:1027500067EEA76A47EE076AF1EEE66A94ED0A6A49
:102760009FED255AB5EEC06AF1EE10FA11DDB4EE18
:10277000E66AF1EE10FAB5BF36EEC66AF0EE457ABB
:10278000C6EE265AB0EE457ABCBF27EE257A67EE34
:10279000A57A27EEA76A07EE076AB1EEC66A94F833
:1027A000E830D4ED3B6A94ED3C4A47EE036A07EE0D
:1027B000834AC4ED3B6A84ED3C4A6BBB0123C4ED04
:1027C0003D6A84ED3E4AC4ED426A84ED434A84ED9D
:1027D0003F6A84ED407AC4ED417A84F8E8301BE02A
:1027E000DB0F4941CDCCCC3D9A99193FA69BC43B08
:1027F000000080FF9A99993F00000000DB0FC9405C
:102800006F12833A00FEFFC6CDCC4C3F35FA8E3CAA
:102810009A99993E00FEFF461FED082AD4ED095A09
:1028200065EE825A65EE835A75EEA24AC5EEA43A69
:10283000D4ED3F4AD4ED405A36EE646A37EE657AFD
:1028400046EE234A94ED416AC4ED3F4A77EEC67ADC
:1028500047EE235A07EEA36A94ED087AD4ED077A7F
:1028600084ED416A44EE877AC4ED405A67EE827A7D
:1028700067EE837A77EEA23A87EEA37AD4ED3D3AFB
:1028800076EEE36A46EE873AD4ED3E6AC4ED3D3A11
:1028900074EE667A47EE876AD4ED0B7AC4ED3E6A31
:1028A000F5EEC07AF1EE10FAC1BF1FED2B7A67EE9C
:1028B000877A45EEA73A46EE276AD4ED067A94ED7C
:1028C000056AD4ED435A24EE866A34EEA77A76EE92
:1028D000E55AC6EE077A94ED047A94ED426A77EEF3
:1028E000A27A33EEC66A67EE877A94ED447A06EEF2
:1028F000277A94ED456A05EEE76A84ED456A1FED97
:102900003B6AB4EEC67AF1EE10FA00F314815FED83
:10291000437AB4EEE77AF1EE10FA58BFF0EE477A58
:10292000BDEEE77AF8EEC75A77EEE57AC4ED447A61
:1029300085ED007A94ED457AB4EEC67AF1EE10FAA0
:1029400000F3FC805FED517AB4EEE77AF1EE10FA15
:1029500058BFF0EE477ABDEEE77AB8EEC76A77EE79
:10296000C67AC4ED457A85ED017AD4ED3B7AD4F888
:10297000FC3084ED425A77EEE37A84ED435AC4ED9D
:102980003B7AD4ED3D7A77EEE37AC4ED3D7AD4ED2F
:102990003C7A77EEE67AC4ED3C7AD4ED3E7A77EE77
:1029A000E67AC4ED3E7A2B6294F8183185F824302B
:1029B00013B0BDE8F083002005E604F17C0870B197
:1029C0005FED6F6AD2ED007AB3EC017A37EE677A89
:1029D00047EE267AE2EC017A9045F3D108E61046FC
:1029E0009946B6EE007AF0EC016AF9EC017A77EEDE
:1029F000E67AF0EEE77AF4EEC77AF1EE10FA01F03B
:102A00000101C8BF00218045EDD100293FF4F0ADA0
:102A1000D2ED007AB3EC017A37EE677A47EE057AA9
:102A2000E2EC017A9045F3D1E2E5002750E65FED54
:102A3000897A21EEA77A04F160018DED0C7A24EEFB
:102A4000277A62EE277A0CA80FAA8DED0D7ACDEDCC
:102A50000E7A0B460AF0C5FD04F16C060846D0ED6F
:102A6000007AB2EC017A43EE477AE0EC017A8642D2
:102A7000F5D147B90846FFF7D3FA00287FF447AEEF
:102A800084F86C0043E673EE037A09AAF4EEE27A66
:102A9000F1EE10FAD4BFB0EE677AB0EE627AB2EC23
:102AA000016AD3ED007AC6EE236A76EEE76A46EE57
:102AB000877AE3EC017A9E42F1D1DBE794F86C303F
:102AC000002B3FF429AE0FAA04F1600104F1480085
:102AD0000AF087FDDDED107ADDED0F6A9DED117ACC
:102AE00067EEA77A46EEA67A47EE077AF1EEE77A26
:102AF0001FEDB97AF4EEC77AF1EE10FA7FF70CAE5B
:102B00001046FFF78DFA00283FF406AED4ED187A90
:102B1000F1EE677ACDED0C7AD4ED197AF1EE677AA1
:102B2000CDED0D7AD4ED1A7AF1EE677A1346CDED3C
:102B30000E7A0CAAF4E5F0EE467AF1E65FEDCB7A78
:102B400009E700BF70B59AB00C4615461A4901AAAC
:102B50001E460BF0B3FE58B3019B4BBB602C24D137
:102B6000224602A93046A847602804461DD102A883
:102B7000FFF70EFBC8B1114B0593114B0393114B9B
:102B80000493EFF31185402383F31288BFF36F8F13
:102B90000D48224602A90FF0FBFC0C4A13680133D2
:102BA000136085F31188BFF36F8F00201AB070BDDA
:102BB0006FF00100FAE700BFC43801000040D044C4
:102BC000295C0F3D40DAFF38DC140020D8140020C7
:102BD00008B50B48FFF7A2FA094A0A4BD3600A4B23
:102BE00053600A4B93600A4B01221A6001F018FCF3
:102BF00020B9BDE80840074801F02ABB08BD00BF66
:102C0000DC1400200040D044295C0F3D40DAFF383E
:102C1000D8140020BC38010038B50C46EFF31185FC
:102C2000402383F31288BFF36F8F064960220FF0B1
:102C3000AFFC14B1044B1B68236085F31188BFF30C
:102C40006F8F38BDDC140020D8140020014B1868A9
:102C5000704700BFD814002010B598B0014660221C
:102C600068460FF095FC012368460093FFF790FA41
:102C70000D4B03930D4B01930D4B0293EFF3118416
:102C8000402383F31288BFF36F8F6022694609489F
:102C90000FF07EFC084A13680133136084F3118837
:102CA000BFF36F8F18B010BD0040D044295C0F3DBA
:102CB00040DAFF38DC140020D814002000B599B0A9
:102CC00068460021FFF7A8FF60226946024801F02C
:102CD0008DFA19B05DF804FBC038010037B50C4619
:102CE00001A9054609F00AF9019BAB420FD01878FB
:102CF00068B99FED087AF0EEC07AF4EE477AF1EE0B
:102D000010FA02D884ED000A012003B030BD002083
:102D1000FBE700BFFFFF7F7FF0B50B798A68012BCF
:102D200089B00C4600EB02050FD0022B15D0002B0A
:102D30002ED18058FEF766FC02460B4615482168E6
:102D400009B0BDE8F0400AF04FBD825C0968124846
:102D500009B0BDE8F0400AF047BD8058696805AB8E
:102D600003C3A86818600598FEF74CFC0646079850
:102D70000F46FEF747FCCDE902010698FEF742FC3C
:102D8000CDE900013246216804483B460AF02CFD9B
:102D900009B0F0BDC8380100D3380100DC380100AB
:102DA0002DE9F04F2DED108BB5B00FF035FB4FF442
:102DB0007A73A0FB030203FB0121C30B43EA4143E7
:102DC00014334FEAD13242F10002D20342EA5342B5
:102DD00040F2E731DB035B184FF000071A93A24C77
:102DE000A24EDFEDA3FA42F100031B93B846B946A9
:102DF000BA461A9BB3F57A7F1B9B73F10003C0F0B0
:102E00002D810023DDE91A014FF47A72FEF752FC9E
:102E10006FF00103181A4FF0FF3363EB01010FF05D
:102E20001BFAEFF31183402282F31288BFF36F8FF6
:102E3000E26827922269269262692592A269249209
:102E400094F820202392B4F93C202292B4F93E2039
:102E500094ED00FAD4ED01EA94ED02EAD4ED07DA3C
:102E600094ED09DAD4ED0ACA94ED0BCAD4ED0CBA8C
:102E700094ED0DBAD4ED0EAA94ED11AAD4ED129AE8
:102E800009EE102AB4F9402008EE902A32681C920C
:102E900072681F92B2681E92F2681D9296F9102015
:102EA00021920025727C96F812B02092C4E9005558
:102EB000C4E90355C4E90555A560C4ED07FA83F3D9
:102EC0001188BFF36F8F1C9B9A4501BF1F9BA3EB1B
:102ED00009091E9BA3EB080804BF1D9BDD1B654B66
:102EE0001B781CBFA846A946002B00F0A88000F064
:102EF00061FD002800F0A3800FF08EFA4FF47A7382
:102F0000A0FB03029FED5C8A03FB0122C00B40EA99
:102F10004241BBF1000F2FEE080A339108BF4FF07A
:102F20002D0B0AF0D7FA2EEE880A28900AF0D2FA72
:102F30002EEE080A29900AF0CDFAB2EE040A2DEE20
:102F4000800A2A900AF0C6FA2DEE080A2B900AF0A1
:102F5000C1FA2CEE880A2C900AF0BCFA2CEE080A72
:102F60002D900AF0B7FA2BEE880A07460AF0B2FA5B
:102F70002BEE080A2E900AF0ADFA2AEE880A2F905E
:102F80000AF0A8FADDED227ADFED3CAAB8EEE70AF6
:102F9000824620EE2A0A20EE080A0AF09BFAB8EED2
:102FA000C90A229020EE2A0A20EE080A0AF092FAB4
:102FB000B8EEE80A329020EE2A0A20EE080A0AF05B
:102FC00089FA2AEE080A31900AF084FA9FED2C0A59
:102FD000309029EE800A0AF07DFA209B319A1192F6
:102FE000CDE91753219BCDE91583309B1293329B7A
:102FF0001093229BCDE90EA32F9B0D932E9BCDE921
:103000000B732D9B0A932C9B0993239B08932B9B5B
:103010000793269B0693CDE91309279B05932A9BCB
:103020000493299B0393289B0293249B0193259B44
:1030300000931C9A339913485B460AF0D5FB1A9B00
:10304000DDF87C90DDF870A013F520231A931B9B0C
:1030500043F10003DDE91D781B93CAE66FF0010020
:103060004FF0FF31DBE600BF501500203C1500207B
:10307000000000003405002000007A4440DAFF38E8
:1030800000401C46F1380100074BBFF35B8F002264
:1030900053E8000F43E800210029F9D1BFF35B8F0B
:1030A000801A18BF012070479C1500202DE9F04FB1
:1030B000B5B0A34900246A4600940FF0C3FA04ADEA
:1030C000D8B1082C10D1049E9E493046FEF74BFB28
:1030D000C0B99D4B9D481B68012219680AF084FB0A
:1030E0009B480AF081FB0AE045F8040B94496A46C4
:1030F000002001340FF0A6FAE2E7002CE3D135B04E
:10310000BDE8F08F93493046FEF72DFB054678B9B0
:1031100001460CA8FFF780FD8F4E31460CA8013503
:10312000FFF7FAFD0E2D06F10C06F6D18B48D8E715
:103130008B493046FEF717FB054600287ED1022C4E
:1031400001DC8848CDE7059FDFF80C924FF00C0BAF
:103150000BFB05F8394659F808603046FEF703FBCB
:1031600008EB090A0146E8B90CAD2846FFF754FD03
:103170009AF80430DAF80870012B05EB070B27D01A
:10318000022B3BD0B3B12846FFF766FD002128464D
:10319000FFF742FD09EB08012846FFF7BDFD724825
:1031A000314604E001350E2DD2D1704839460AF07F
:1031B0001BFBA4E7032C02D06D483146F7E70698C5
:1031C00001A9FFF78BFD0028F6D0019BEB51DAE750
:1031D000032C02D067483146E9E7069801A9FFF7BA
:1031E0007DFD0028F6D0DDED017AF5EE407AF1EEB6
:1031F00010FA14BF01230023EB55C4E7052C02D0BD
:103200005D483146D3E7069801A9FFF767FD00281E
:10321000F6D0079802A9FFF761FD0028F0D00898C2
:1032200003A9FFF75BFD0028EAD001AB03CBE8510F
:103230001868CBF80410CBF80800A4E74F493046D3
:10324000FEF791FA38B9FFF739FD014608B14C484D
:10325000ADE74C4845E74C493046FEF784FA18B9CB
:103260000AF0B7FA49483CE749493046FEF77BFA8D
:1032700068B9BFF35B8F474B012253E8001F43E857
:1032800000200028F9D1BFF35B8F434829E7434969
:103290003046FEF768FA68B9022C0BD14049059810
:1032A000FEF761FA003818BF012000F069FB0599AC
:1032B0003C487CE73C493046FEF755FA70B9022C91
:1032C0000CD1059C36492046FEF74DFA374B0038A5
:1032D00018BF012018702146354868E73549304647
:1032E000FEF741FA054600286ED10CAE0146A02239
:1032F00030460FF05BF93048174F0AF075FA2C464C
:1033000057F824302D4AC5F1A001701908F0CCFD02
:10331000002806DB272C054403D09F2D04F103046D
:10332000EED9274831460AF05FFA074B1B685B6805
:1033300023B1204A019201A9012098472148D0E6F3
:103340004A390100AA380100A01500204E390100B9
:103350005B39010063390100403301006739010026
:103360006F390100733901000D3A01009F390100E6
:10337000B7390100D4390100ED390100183A0100D4
:103380001D3A01002A3A0100333A01003C3A01009B
:10339000493A01009C150020503A01005B3A0100B7
:1033A00034410100623A0100703A01003405002006
:1033B0007A3A01001C3801008B3A0100D43A01002E
:1033C000D83A0100E83A0100064B1B685B6813B964
:1033D00005483146EBE604A9204698470028F7D077
:1033E0008DE600BFA0150020F13A01002DE9F04361
:1033F000EFF31186402484F31288BFF36F8F254DBD
:1034000001F1140700F1600C023B05F13A0E01F1E5
:1034100020082C46B7EC017AD5ED007A77EE877A52
:103420004745E5EC017ADCF81090C5F820905CF88F
:10343000049BC5F82C9033F9029F2EF8029FE9D126
:103440000D68E368D1ED087A94ED077A2B44E360C8
:103450004D6823692B442361636901336361A36968
:103460001344A36191F8243084F82030F4EEC77A35
:10347000D0F8D8306364F1EE10FAD0F8DC30C8BF71
:10348000C4ED077AA36486F31188BFF36F8FBDE89C
:10349000F08300BF5015002070B50446EFF311868D
:1034A000402383F31288BFF36F8F0FCC044D0FC5F9
:1034B00023682B6086F31188BFF36F8F70BD00BF48
:1034C0003C150020014B1860704700BFA01500207C
:1034D000F0B5144D07460E460FCD87B001AC0FC4B2
:1034E0002B68236001A8002301248DF80570029643
:1034F000ADF812308DF8174005F03AFE78B90A4859
:1035000006F008F858B9094806F01EF838B9084816
:10351000214606F031F810B94C2006F053F807B0F8
:10352000F0BD00BF003001009C4101009841010046
:1035300097410100EFF31182402383F31288BFF318
:103540006F8F074B1970074900230B7006490B60FA
:1035500006490B6082F31188BFF36F8F704700BF7D
:103560000F2100200E210020AC150020B0150020F6
:1035700010B5084CA0B04FF0FF3307484FF0FF32B2
:10358000694607F057F92368002BF4D0684698473E
:10359000F1E700BFA4150020800600202DE9F04FC0
:1035A000524EB1B00446A368DB6B002B40F0908014
:1035B000A3689B6B002B40F09380A368DB6A33B950
:1035C000A3681B69002B34D16FF0570836E0204602
:1035D00098470028F4D1A368DB691BB120469847BF
:1035E0000028E0D0EFF31187402383F31288BFF364
:1035F0006F8F3F4D2946EB8831F80A2F9B1A9BB2FB
:10360000402B10AA28BF402328460AF040FC02465F
:1036100000284CD105F10A0128460AF06EFCA36887
:103620009B690BB12046984787F31188BFF36F8FD2
:10363000B9E740226946204698478046DFF8C090A7
:103640006D464FF0000AC245C5DA15F8012B0A2A6B
:1036500001D00D2A1DD196F800B0BBF1000F13D197
:10366000D9F8007087B13A46224910A80EF090FFB1
:1036700007F1C0030DEB030707F880BC1E480022CA
:10368000002310A90EF0F7FB0023C9F800303370B7
:1036900008E0D9F800307E2B07D8591CC9F8001073
:1036A0001449CA540AF1010ACDE70123EFE7A368E0
:1036B0001099DB684BB120469847104920EAE07228
:1036C000A1F10A000AF019FCAEE76FF05700F4E729
:1036D0002046984700287FF46BAF31B0BDE8F08FEB
:1036E0002046984700287FF468AFF6E78C2000203A
:1036F000DC0000208D20002080060020E600002055
:10370000A81500202DE9F047EFF311814FF0400A92
:103710008AF31288BFF36F8F2C4B1B7883B1DFF8CD
:10372000C88098F800305BB9294B1B7803F0FF097B
:1037300033B9284F284E3A68336852EA030005D15E
:1037400081F31188BFF36F8FBDE8F08747F6FF74F0
:10375000A24222481546A8BF25468542B8BF054665
:103760009C42A8BF1C468442B8BF0446521B1B1B88
:103770003A6033601A4A012388F80030C5F3072302
:103780009370C4F3072382F800905570D4701371BE
:1037900082F8059081F31188BFF36F8F11480621DD
:1037A0000CF04BFE0028CFD0EFF311828AF3128881
:1037B000BFF36F8F3B6888F800902B443B60336801
:1037C0002344336082F31188BCE700BF0F2100203F
:1037D00010210020B0150020AC1500200180FFFF53
:1037E000B4150020602C01000E210020EFF311839E
:1037F000402282F31288BFF36F8F044A00211170B8
:1038000083F31188BFF36F8FFFF77CBF0E21002079
:1038100013B50B780446092B18D8DFE803F0050E22
:103820001C1924171717172A0BF004FB70B1204638
:1038300002B0BDE810400BF09CBA0BF0FBFA10B1DF
:1038400020460BF0D9FA1D4B00221A7002B010BDB1
:103850001B4B0122F9E71A4B00221A7002B0BDE897
:103860001040FFF74FBF164A00231370134A13701E
:10387000ECE700230193134883689B6C13B101AA02
:1038800004219847019B0D4A003B18BF0123137088
:10389000137803F0FF02002BD8D1EFF311814023FE
:1038A00083F31288BFF36F8F074BC3E90122DA60FD
:1038B00081F31188BFF36F8FC8E700BF0D2100208F
:1038C00010210020282C0100DC00002050EA010318
:1038D000F0B410D0EFF31184402383F31288BFF3C8
:1038E0006F8F214B1B7813B1204B1B782BB984F3BE
:1038F0001188BFF36F8FF0BC70471D4D1D4E2A68B5
:10390000C317101843EBE27386424FF0000272EBCC
:103910000307B8BF1346184AB8BF304690424FF06D
:10392000FF36B341B8BF104628601448114D0268F5
:10393000CB17511843EBE2738D424FF0000272EB4C
:103940000306B8BF13460C4AB8BF294691424FF050
:10395000FF35AB41B8BF1146016084F31188BFF356
:103960006F8FF0BCFFF7CEBE350500200F21002081
:10397000B015002040420F00C0BDF0FFAC15002084
:10398000EFF31183402282F31288BFF36F8F064A50
:10399000107018B9054A1060054A106083F3118849
:1039A000BFF36F8F704700BF35050020AC150020B6
:1039B000B0150020044B1B7803F0FF001BB1034B34
:1039C000187880F0010070470D21002010210020A0
:1039D00070B50546FFF7EEFF0A46044698B1EFF3CF
:1039E0001186402383F31288BFF36F8F0E488189BD
:1039F00083885B1A01699BB2C91A8A4206D986F389
:103A00001188BFF36F8F0024204670BD29460AF04D
:103A10008DFA86F31188BFF36F8F044883685B6962
:103A2000002BF1D09847EFE7DC000020282C0100A4
:103A30003E4B37B518603E480EF02CF920B96FF0B8
:103A40001204204603B030BD3A4D28460EF022F94C
:103A50000028F4D0384B3949354840220CF0F0FCAE
:103A600004460028EDD1AB682BB11B6C1BB102469C
:103A7000334928469847334933480BF03CFA04460B
:103A80000028DED1314930480BF035FA04460028D1
:103A9000D7D12F492C480BF02EFA04460028D0D15C
:103AA0002C4929480BF027FA04460028C9D10146C1
:103AB000294A25480BF006FD04460028C1D10346DB
:103AC00001460122204802F09FFC04460028B8D19C
:103AD0000123EF22014600931B4802230BF0E0F87C
:103AE000214619480BF000F91C4917480BF0BEFF9E
:103AF00004460028A5D114480BF00BF90446002811
:103B00009FD1AB681B6A0BB10A4898470E480BF06F
:103B100091F928B14FF08043D3F83834DB0790D5C2
:103B2000094803B0BDE830400BF023B9A4150020CC
:103B3000602C0100282C0100E8330100A0410100A5
:103B40009D35000064010020640700204C01002026
:103B5000340100201C010020F0000020113800007A
:103B6000014B1B68184700BF7C01002030B504469C
:103B700085B00D461022002168460EF017FD022385
:103B80008DF802302A46044B01932146684608F01E
:103B900039FC05B030BD00BF613B000080B5054673
:103BA0000E461746984607F00FFD034601F0D2FA7D
:103BB000DFF81890044649F800304246304639464E
:103BC000A84754F8090001F043FA00BF08000000BC
:103BD00008B50446EFF31183402383F31288BFF343
:103BE0006F8FEFF3108372B604F0ACFE204601F045
:103BF0004DFD03480AF018F80AF0A6FFFCE700BFE5
:103C0000973B01002DE9F047058B0446280717462E
:103C10000CD501290CBF45F0100545F02005258382
:103C200087F31188BFF36F8FBDE8F087022905F095
:103C3000070540F0948020460AF01EF8052864D855
:103C400001A353F820F000BF213C00005F3D0000BD
:103C50000B3D0000CD3C0000E73C0000F93C0000BB
:103C600001F007035A1F012A1FD8002221F0070183
:103C7000062BD4F8008089B2C4E9002209D143465A
:103C800003E0628B013262831B68002BF9D141F0A3
:103C900002012183204609F0EFFF4FF000090028C0
:103CA0006DD041F02001218369E0042B0AD121F07D
:103CB000070189B22183204609F0DEFF10B141F0EF
:103CC000200121834FF00008C14658E02369D3F852
:103CD0000090238B23F0070343F0060323834FF068
:103CE000000846464BE02369D3F80490238B23F069
:103CF000070343F00403F1E72369D3F80890238B0B
:103D000023F0070343F00503E8E74FF00008C1463E
:103D1000E7E7012243F00803238387F31188BFF309
:103D20006F8F002A3BD1B8F1000F4AD1B9F1000FD3
:103D300002D02D492046C847EFF31187402383F373
:103D40001288BFF36F8F238B23F008039BB223836A
:103D5000D9063FD523F01002228303F007056669D8
:103D6000218B002EBFF67CAF0023D4F8008021F019
:103D70000701C4E9003341F0010121839946238BF7
:103D800003F0070AAA4502D0A268002AC1D1B8F1FF
:103D9000000F02D1B9F1000FDAD00022BAE7A16812
:103DA0000029C0D00D680029BDD04F683346524667
:103DB0002046B8471DB12B6829461D46F3E72B4620
:103DC000FAE74146334652462046D8F8008009F0CB
:103DD0007FFFA8E79A067FF523AF23F02002228316
:103DE00003F0070527E700BFFDDC000037B50446F8
:103DF0000821C06A124D0AF0EAF900234FF6FF725B
:103E0000ADF804306368ADF800208DF80620E26854
:103E100019182B401344181A60606846ADF8021058
:103E20000AF02DF9694620460AF0F0F9211D2046D6
:103E30000AF0FFF863682B40A36003B030BD00BFF9
:103E40000000FFFF2DE9F7430F4681460821C06AB5
:103E5000144D0AF0BCF93C68241A80463C6004EA20
:103E60000506B4421CD3A0B210B903B0BDE8F0837C
:103E700008236A46214648460AF0A2F80028F4D1F1
:103E80006946A0B20AF08FF938B1BDF80230BDF82A
:103E900004203C602E4013441E44A4EB0804E0E7D9
:103EA0000020E2E70000FFFF2DE9F047044688B05C
:103EB00000F1140738460DF0EDFFA06A8368DB6857
:103EC0009847E06228B96FF01505284608B0BDE8AC
:103ED000F087A06A8368DB6898470368013B1F2B63
:103EE000F1D8E368B3F5803FEDD8A06A216805AA50
:103EF0000CF0B4FF0028E6D1E568002DE3D0069B66
:103F0000B5FBF3F203FB1255002DDCD1238A012B04
:103F1000D9D9E36A009593F805804FF0FF334FF04D
:103F2000FF32384606F0EAFCE06A08210AF04FF951
:103F3000A9460646238A1FFA85FA534544D8238AA0
:103F40004B4500F0FF809A450BD10099082342466B
:103F5000891B20460AF042F818B9694620460AF043
:103F600068F869462046FFF76DFF0546002840F0D7
:103F7000EB80009961604FEA11494FEA0949C4F8A2
:103F80000890A3688B420DD8082301AA20460AF0A6
:103F900017F8B8B901AB13F8012B904532D10130B5
:103FA0000828F8D1636869466FF30F032046009331
:103FB0000AF03FF8E3680099424620460AF00EF8FE
:103FC00000283CDA0546BFE0E1682B04891B13FAA0
:103FD00081F1424608232046009109F0FFFF78B1A5
:103FE000694620460AF025F809F1010900990823DD
:103FF000424620461FFA89F909F0F0FF00289ED0BA
:10400000013597E7A08801A90AF0CDF8626810B9D8
:10401000911B6160B5E7BDF808A0BDF80610E06A25
:10402000C4F8089051440AF0D2F848448242A06093
:10403000EED1BAF1000FEBD06FF01C0584E05DD03B
:1040400063684FF6FF7906EB0308E368CDF800805C
:104050001FFA88F29B1B9A421CD34FF0000861683C
:10406000B8F1000F30D06FF30F0100912046694680
:1040700009F0DFFF0099204609F0E8FF0028A1D1F0
:10408000E368A288A3EB46039A425DD120460AF07A
:10409000DAF897E7082303AA4146204609F090FF83
:1040A00000288FD103A91FFA88F00AF07CF830B1FC
:1040B000BDF80C304B4502D1BDF810300BB1B04407
:1040C000C3E74FF00108CAE7204609F0BFFF002808
:1040D0007FF478AF6368214AE16813400B44A3EB97
:1040E000460363601340A360414620460AF02FF95F
:1040F000C4E7E26AA36812681344A360D4E90131FB
:104100008B4208D95B1A4246204609F067FF002817
:10411000FFF658AFEDD16168E36801EB46029A42C1
:10412000AED10E4BA06801EA03029042A8D020460F
:1041300009F08CFF00287FF445AF6268074B1A40F6
:10414000A2609DE76FF02C05384606F049FC002D73
:104150007FF4BBAE0123A374B7E600BF0000FFFFEE
:10416000014B0360002070470C34010070B5104B08
:104170001C680D46B4B10F4B196800238B4202DB5B
:104180006FF0010070BD224612F8106B864202D01B
:1041900001331446F2E7E0680DF07CFD28B12C6095
:1041A0000020EFE76FF00C00ECE76FF01200E9E79A
:1041B000800100200C34010010B588B043680293E0
:1041C0008368C068CDE903320A680023CDE906237D
:1041D0000C4601AA044905930CF044FE079808B95F
:1041E000059B236008B010BD47E800002DE9F041B1
:1041F0000C4B1C6805460E4617467CB100F000F9D2
:1042000063682046D3F8108032463B462946C047B3
:10421000044600F0FFF82046BDE8F0816FF001048D
:10422000F9E700BFBC15002000230360044B5A6867
:1042300012B9C3E90000704710605860704700BFB2
:10424000C0150020014B1860704700BFBC1500204E
:1042500030B585B00023CDE902330546019000F06A
:10426000CFF8094B1C6844B9284600F06BF80446A7
:1042700000F0D0F8204605B030BD636820461B68CA
:1042800001A998472468EEE7C0150020024B0022E0
:10429000C3E90022704700BFC0150020024B002276
:1042A000C3E90022FFF7F2BFC81500202DE9F7434C
:1042B00007460C4609B100230B601F4DDFF88090C4
:1042C00000264D450FD31D4B1D6885B355F8188C3E
:1042D00001AA41463846183D0AF0F0FA10B3D6B9A3
:1042E00014BB2E461EE0D5F8008001AA4146384690
:1042F0000AF0E4FA50B116B954B92E4606E0316816
:10430000002240460AF0DAFA0028F5D11835D8E73D
:10431000019B2360F1E73168002240460AF0CEFAA3
:104320000028DDD1AD69D0E7019B2360D9E7304695
:1043300003B0BDE8F08300BFE82F0100C8150020DE
:10434000003001002DE9F047DFF8AC90DFF8ACA0B9
:1043500080464FF000470026264C3D464C450DD385
:10436000DAF80040002C40D0183CB8F1000F24D1FE
:10437000226952BBA469F5E72F46EDE7B8F1000FBB
:1043800003D122694AB91834E8E72068002241467F
:104390000AF094FA0028F4D1F5E76368BB4206DD21
:1043A000AF4202D0AB42A8BF2B461D46EBE7EAD195
:1043B0009047002E08BF0646E5E7206800224146E8
:1043C0000AF07CFA0028D3D1D4E76368BB4206DD4B
:1043D000AF4202D0AB42A8BF2B461D46CAE7C9D1A7
:1043E0009047002E08BF0646C4E7AF42C4D130460E
:1043F000BDE8F087E82F010000300100C81500205B
:1044000003484FF0FF324FF0FF3306F077BA00BF9A
:1044100058060020014806F0E3BA00BF5806002005
:1044200038B5094DFFF7ECFF2B785BB9FFF736FF86
:1044300000F068F8044608B901232B70FFF7EAFF83
:10444000204638BD0024F9E7112100202DE9F04372
:10445000048F013499B006460F46A4B200F1080853
:10446000651EADB2B5F5004F47D04A2305AA2946CF
:1044700040460AF0E0F904F57F543F34A4B2814687
:10448000214601230DF10B0240460AF0D4F9B9F19F
:10449000000F014610DC002810DC338FAB4209D13D
:1044A00032466B1E22F8383F4FF40041022340464B
:1044B0000AF08CF82C46D3E7002808DC2946404651
:1044C0000AF060F9214640460AF05CF9E5E709F197
:1044D00060030DEB0309002309F84C3C084A0097E0
:1044E00003AB05A8CDF80C80ADF810400AF00AFA2D
:1044F0000028DFD019B0BDE8F0830020FAE700BF44
:1045000073E900007FB50123694603200193FFF79B
:104510002DFE044660BB02AA01A903200AF0B5F9EA
:10452000044610B110F10C0F22D10399B1F5803F70
:1045300023D2009A002394681846084484421AD370
:104540000133082BF9D10E4D69612B835368AB60A1
:104550002846D368EB630AF0A2FA044640B9094E34
:104560006E602846FFF760FE28466E60FFF76AFE21
:10457000204604B070BD9BB2E5E76FF02004F7E77A
:10458000D01500205034010008B5044809F04CFB58
:10459000034809F049FB002008BD00BFC03B0100F3
:1045A000F53B0100014807F027BB00BF6C34010058
:1045B00038B5044618B90F4B0F485B6898476168D7
:1045C000B1F5683F10D0B1F5680F0DD00B4DA94281
:1045D0000AD011F46861206807D0014608480DF040
:1045E000FAFB00232360656038BD14220DF0DEFF66
:1045F000F9E700BFB4040020223C01002C5F5CA955
:10460000101B002008B520B34368B3F5683F10D1F4
:1046100001220368BFF35B8F53E8001F002903D119
:1046200043E800200028F7D1BFF35B8F0DD10020B5
:1046300008BD094A93420AD000684FF0FF324FF09C
:10464000FF3306F05BF90028F1D00448F0E7044896
:10465000EEE76FF4E040EBE72C5F5CA9E98FFFFF2A
:10466000EA8FFFFF08B5D8B14368B3F5683F10D1B2
:1046700000220368BFF35B8F53E8001F012903D1B9
:1046800043E800200028F7D1BFF35B8F0BD1002057
:1046900008BD074A934208D0006806F0A1F9F6E782
:1046A0006FF4E040F4E70348F2E70348F0E700BFA7
:1046B0002C5F5CA9E98FFFFFEA8FFFFF10B504466E
:1046C00018B91D4B1D485B6898476368B3F5683F90
:1046D0002FD0B3F5680F2CD0194A934219D1236813
:1046E00003BB18484FF0FF324FF0FF33214606F06E
:1046F0000DF808B923681BB90F4B13485B6898473E
:104700002068142200210DF051FF4FF468636360AC
:1047100008E0B3F5680F0DD83A2B03D040F6BA6223
:104720009342DED120680DF0B5FB636843F03A0395
:10473000636010BD054AF3E7B4040020223C010089
:104740002C5F5CA9101B0020483C01003A00003A95
:1047500008B506490648402314220DF02FFBBDE89A
:1047600008400449044807F0B9BA00BF10160020F9
:10477000101B0020743401008834010008B5034880
:10478000034A0021121A0AF0C3F908BD10080020DC
:10479000E82300200748084A084908B5121A0AF019
:1047A000B9F90748074A0849BDE80840121A0AF053
:1047B000B1B900BF00000020100800206C420100C9
:1047C00000000020000000206C420100F0B5074608
:1047D00087B00C4600292ED0D1E901231D48096875
:1047E00009F022FAD4E90423E1681B4809F01CFA15
:1047F000E1691A4809F018FA26460025F36A04937D
:10480000EB1C0393B36A0293AB1C0193736A00938E
:10481000326A13486B1C2946043509F005FA102D3D
:1048200006F11006EAD1216E0E4809F0FDF9A169E2
:104830000D4809F0F9F9012F05D1EFF305810B4877
:10484000103909F0F1F92146384607B0BDE8F040CB
:1048500005F0FABD753C0100A53C0100D53C010006
:10486000E53C0100293D0100393D0100683D0100A2
:1048700030BFFFF7FDBF00BF2DE9F0410B4EDFF861
:10488000348006EB0807CC1B054632460849204613
:104890000DF07EFEA01942460021083C0DF086FE78
:1048A000AC6707F10800BDE8F08100BF0000000020
:1048B00000300100080000002DE9F843324D804629
:1048C00032488946174609F0AFF9AB6ADE0622D5B1
:1048D0002F4809F0A9F91124AB6A1D0703D52D480B
:1048E00009F0A2F91224284DAB6A980715D52A4879
:1048F00009F09AF96E6BAB6A190642D52748314622
:1049000009F092F9B9F1000F03D0AB6A23F08003EC
:10491000AB62132403E01024DEE76FF015061A4D96
:10492000AB6ADA0703D51E4809F07EF91424AB6A96
:104930009B0603D51B4809F077F91524124B9A6A98
:10494000D50602D49A6A90070AD55B68190507D57F
:104950004146304600F000FB10B180F30988022484
:10496000094B9A6A920642BF5A6A22F400525A626E
:104970009A6A42F0FF029A6200233B702046BDE82B
:10498000F8836FF01506C4E700ED00E07C3D010000
:10499000933D0100C73D0100DB3D0100F43D0100F6
:1049A0000B3E01002B3E010010B51D4C1D4809F0C7
:1049B0003BF9A36A990130D51B4809F035F91E204F
:1049C000A36ADA0103D5194809F02EF91F20144C07
:1049D000A36A1B0303D5164809F026F92120A36A10
:1049E000590303D5134809F01FF922200C4CA36A80
:1049F0009A0303D5104809F017F92320A36ADB03B3
:104A000003D50E4809F010F92420054A936A6FEA8D
:104A100003436FEA1343936210BD1D20D0E700BF2C
:104A200000ED00E05B3E0100743E0100883E0100A5
:104A3000A33E0100C23E0100E83E0100033F010029
:104A400070B5244C064624480D4609F0EDF8A36ADB
:104A5000D90435D5214809F0E7F81720A36A1A05CB
:104A600003D51F4809F0E0F818201A4CA36A9B05EB
:104A70000FD51C4809F0D8F8A16BA36A180407D514
:104A8000194809F0D1F81EB1A36A23F40043A362C8
:104A90001920104CA36A590503D5144809F0C4F82D
:104AA0001A20A36ADA050DD5114809F0BDF81B20BC
:104AB000084A936A43F47F43936200232B7070BDCE
:104AC0001620CBE7A36A9B04F2D50A4809F0ACF89C
:104AD0001C20EDE700ED00E02F3F0100463F010004
:104AE000C73D0100583F0100723F0100883F0100AF
:104AF000A43F01002B3E01002DE9F0415A4B5F68B5
:104B00009CB00546C7F30804002686F31188BFF35E
:104B10006F8F02F07F43B3F17F4F06D102F00C0399
:104B2000082B13D1514809F07FF8002635464FF085
:104B30000008E31E8DF80780092B00F28680DFE86D
:104B400003F00A7A7E7684848484848210074CBFC2
:104B50000D460126EBE74648434C09F065F88DF811
:104B60000780E36A9A0704D5424809F05DF80024FB
:104B70002AE0E36A002B01DA3F48F6E7E36A5B00CC
:104B8000F5D53E4809F050F86369AA6943F480738B
:104B90006361BFF34F8FBFF36F8F32F8023C6269DE
:104BA00022F480726261BFF34F8FBFF36F8F03F403
:104BB0007F42B2F55F4F21D1DBB2022B1ED12968B3
:104BC0002F4809F031F82C689DF807309BB968220E
:104BD000294602A80DF0DCFC099B002E41D0C3F34E
:104BE000080222B96FEA53236FEA4323099302A90B
:104BF0002046FFF7EBFD1CB0BDE8F0811A4B9A6A26
:104C0000D2B232B10DF1070201212846FFF754FE5E
:104C10000FE09A6A12F47F4F05D00DF107010120D1
:104C2000FFF70EFF05E09B6AB3F5803F9FD3FFF7C8
:104C3000BBFE0446C8E70DF107020021E5E70DF1D0
:104C400007010020ECE70F488FE70F4B0F49104892
:104C500017F4F87FA4F1100208BF194608F0E4FF2A
:104C600085E76FF30803C1E700ED00E0EB3F0100CB
:104C7000174001002F400100514001006040010039
:104C8000804001009D400100BD3F0100D23F010076
:104C9000C2400100044B5A6942F010025A615A693D
:104CA00022F008025A61704700ED00E0EFF308803F
:104CB000EFF3098101B57246FFF71EFF01BD00BF8A
:104CC000002080F31488BFF36F8F0F4880F30888AB
:104CD00004F0D0FE00200D490860BFF34F8F00F0B4
:104CE0002BF8402080F3118809484FF408614018E0
:104CF00080F30988EFF314800221084380F31488BD
:104D0000BFF36F8F00F0B4F8805F002094ED00E0F7
:104D1000004D00200749D1F890200023C2F307225C
:104D20001846934200DB7047C1F89830C1F8A000E4
:104D30000133F6E700ED00E008B572B6002383F317
:104D40001388FFF7E7FF144B4FF0FF32C3F88020C2
:104D5000C3F88420C3F88820C3F88C20C3F89020BF
:104D6000C3F89420C3F89820C3F89C20C3F880218E
:104D7000C3F88421C3F88821C3F88C21C3F890219B
:104D8000C3F89421C3F89821C3F89C2162B6BFF3FD
:104D90004F8FBFF36F8F08BD00E100E01EF0040FDE
:104DA0000CBFEFF30880EFF30980816911F8021C52
:104DB0000229FFD001B5724609F0AEFE01BD00BF69
:104DC00040B2002807DB044A4109012300F01F001C
:104DD000834042F82130704700E100E040B20028F3
:104DE0000CDB4309064900F01F00203301228240FA
:104DF00041F82320BFF34F8FBFF36F8F704700BF81
:104E000000E100E0054B420900F01F0053F82220AA
:104E1000012303FA00F01040704700BF00E100E0FA
:104E200040B2D30754BF023100210028ACBF00F1CB
:104E30006040074A4FEA4113ACBF00F5614000F003
:104E40000F00DBB2B4BF135480F80033704700BFCB
:104E500014ED00E0044B054A23F07F039360BFF399
:104E60004F8FBFF36F8F70470010000000ED00E020
:104E700008B5FFF7EFFF104BD3F8882022F470023B
:104E8000C3F88820D3F8882042F4A002C3F8882011
:104E90004FF04042C3F83422BFF34F8FBFF36F8F00
:104EA0000023E1EE103AFFF769FCFFF773FC00F016
:104EB00033F905F08FFB00BF00ED00E0818941F080
:104EC000020181814FF47D41C0F8C41042F8203CBA
:104ED000009B42F81C3C0A49019B42F8183C029B8B
:104EE00042F8143C21F001014FF0807342F8043C79
:104EF00042F8081C0023203A0265C367704700BFD0
:104F00009D3B0000838913F0020F124B03D190F8F0
:104F1000C520D20611D45A6B42F080425A63D0F8B1
:104F2000C43019075CBF43F00803C0F8C43083895C
:104F300043F002038381802070475A6B22F0804245
:104F40005A63D0F8C4301A0744BF23F00803C0F8EE
:104F5000C430F0E700EF00E0094A0346906870B102
:104F600013F1160F806E05D0A0F18002934205D395
:104F7000834203D2814228BF00207047002070473F
:104F800014200020104B9B6883421AD1EFF3058058
:104F9000B8B9EFF31181402282F31288BFF36F8F0B
:104FA0009A8922F002029A81EFF3148323F004031A
:104FB00083F31488BFF36F8F81F31188BFF36F8F72
:104FC00070476FF0150070471420002008B5154693
:104FD0000E460022E1EE102AEFF3148222F00402C2
:104FE00082F31488BFF36F8FBFF36F8F0B4A0C4BA4
:104FF0009060826F1A6000F0BFF82C4686F3098833
:105000000020044B98472046002100220023024C38
:10501000204700003BEB00009D3B000014200020D7
:105020002C1B0020014B10221A61704700ED00E09C
:10503000054B9A699B689A421FBF044A536843F024
:1050400080535360704700BF1420002000ED00E043
:10505000084B9B6883420BD1EFF3058343B1064BAA
:105060005A6842F080525A605A6A22F400425A62E8
:1050700006F0B0BA1420002000ED00E023498A6851
:1050800082F8C5E04FF030001044EFF3098C80E85F
:10509000F01F1EF0100F03D102F1840080EC108A83
:1050A000402080F31288BFF36F8F194F4FF00066D6
:1050B0008A698A603E60906F164C206092F9C5E064
:1050C000D06F0023D36780F311881EF0100F03D038
:1050D0000023E1EE103A03E002F1840090EC108A24
:1050E000EFF3148323F0040383F31488BFF36F8F6B
:1050F00004B5104600F040F8BDE8044002F130006D
:1051000090E8F01F8CF309887047000014200020FD
:1051100004ED00E02C1B0020044800234021C218AD
:105120000133302B82F80013F9D1704700E100E021
:1051300008B5EFF30583064A103B02EBC30152F8B2
:10514000330049688847BDE80840FFF771BF00BFDA
:10515000B42C010001480068704700002C1B00209F
:10516000024B034A0348012100F07CB800000420F0
:10517000000000209834010010B50446FFF7C2FE7D
:10518000A26E03460548D21AC0E90023044B83608F
:10519000BDE81040012100F06FB800BF301B0020B7
:1051A00000000B15084AC2F898000B6823F01F0393
:1051B000034343F01003C2F89C308B6843F00103B3
:1051C000C2F8A030704700BF00ED00E02DE9F043C9
:1051D000DFF8608085B00E461F4604464FF0000998
:1051E000B14523DA6068D8B13FB1411E08421BD1F6
:1051F0007F2819D92368194216D12368019309F031
:10520000BFFCA36803430393D8F89050C5F3072568
:10521000D0B2013DA84207D801A9FFF7C3FF421C45
:1052200009F101090C34DBE76FF01502104605B0F7
:10523000BDE8F08300ED00E0044B0522C3F89420A4
:10524000BFF34F8FBFF36F8F704700BF00ED00E0DB
:10525000BFF35F8F024B0022C3F89420704700BF5A
:1052600000ED00E010B5034C01232278FFF7AEFFFC
:10527000207010BD1221002008B50B4A00231278BF
:10528000FFF7A4FF10F1160F07D0084A0021D2F84B
:105290009030C3F30723984200DB08BDC2F89800A2
:1052A000C2F8A0100130F2E71221002000ED00E06A
:1052B0002DE9F0435A4B5B4DD3F890302C68C3F383
:1052C00007239C4285B000F2A780FFF7C1FF0020B2
:1052D0000C2684421AD1544EDFF84491347068464B
:1052E000FEF73EFF514C524D80460027B84514D181
:1052F00033784B490020D1F89020C2F30722934223
:10530000C0F28480FFF798FF002045E0696806FB43
:105310000011FFF747FF0130DBE7009800EB0711B2
:105320004FEA071CCB682340B3F5000F4DD00AD8D5
:10533000B3F5001F33D0B3F5800F3BD0B3F5801F1A
:1053400013D00137D2E7B3F1007F47D0B3F1805FCC
:105350004DD0B3F1807FF4D150F80C3088684A68A2
:1053600009F00EFC40F0887009E050F80C308868B5
:105370004A6809F005FC40F0885040F43020CDE93F
:1053800001230390D9F890303078C3F30723013B11
:10539000984234D96FF0150005B0BDE8F08350F89D
:1053A0000C3088684A6809F0EBFB40F0885040F404
:1053B0000020E4E750F80C3088684A6809F0E0FB08
:1053C00040F0007040F40030D9E750F80C308868A5
:1053D0004A6809F0D5FB40F08270D0E750F80C30F5
:1053E00088684A6809F0CCFB40F48020C7E750F891
:1053F0000C3088684A6809F0C3FB2843BFE701A95D
:10540000FFF7D0FE3378013333709AE7C1F8983054
:10541000C1F8A00001336EE74FF0FF30BCE700BFDA
:1054200000ED00E0A4340100122100200000F0FF94
:105430000000021108B50649064821F00701C1F134
:10544000005202F5802208F0ACFB002008BD00BF2E
:10545000478E00203C1B002070B54169867A0B4DB9
:10546000044659B1437ADB0706D4242303FB0653D1
:10547000DB691B689B6898470023636124202146F1
:1054800000FB0650BDE870400CF093BD1C070020E7
:10549000024B242202FB0030704700BF1C07002093
:1054A000827A064B242101FB02331A6A1B7D1B33CF
:1054B000801A23F00303B0FBF3F070471C070020B1
:1054C00038B5074B827A242404FB0233DB69D3E925
:1054D00001240C601568FFF7E3FF04FB005038BDA2
:1054E0001C0700202DE9F04385B00546684603916E
:1054F00090461C460CF092FFDDE90067EFF311893E
:10550000402383F31288BFF36F8F6B8A002B41D047
:105510002A8A9A4225D900220023284605F0B0FAAB
:105520000446F0B189F31188BFF36F8F039B002B02
:1055300041D032463B4668460CF095FFA27A264B96
:10554000242101FB02332046DB691B6803A91D6887
:10555000DDE90023A847606170BB2046FFF77CFFB0
:1055600024E0698A4B1E6B8289F31188BFF36F8F29
:105570002B7D2A8A2C6A1B3323F00303521A02FB69
:105580000344154B154AEB1A9B105343A3722B7D12
:10559000E372CBE789F31188BFF36F8F234642464E
:1055A000284605F06DFA04460028BFD100242046A5
:1055B00005B0BDE8F0836361012300252381039BCF
:1055C0006382E27A6560294604F118000CF0EEFF70
:1055D00063692582E360EAE71C070020398EE3381F
:1055E000F8B5124D0024242600B9F8BD00F10802D8
:1055F0004768BFF35B8F52E8003F591E42E8001C2A
:10560000BCF1000FF7D1BFF35B8FDBB2012BECD104
:10561000837AC46006FB035344609B6913B19847C7
:105620003846E1E7FFF718FFFAE700BF1C07002044
:105630000C4B0122C3F840254FF080434FF08051BE
:10564000C3F87825D1F83001082805D1D1F83411F4
:10565000022908BFC3F838260122C3F8802500209C
:10566000704700BF00E0014048B1054B054A1B6888
:10567000B3FBF2F35843044B43F001031847704760
:10568000A004002040420F0090300100BFF34F8F74
:105690000549064BCA6802F4E0621343CB60BFF3CE
:1056A0004F8F00BFFDE700BF00ED00E00400FA05EA
:1056B00008B5054A054B136010463F23536004F0BC
:1056C000C7FA002008BD00BF481B0020FFFF0700ED
:1056D0004FF08043D3F84036DB072ED54FF0102330
:1056E000D3F8043303F00703072B26D1134A012311
:1056F000C2F80435D2F80034002BFBD04FF0102153
:10570000D1F8043323F0070343F00403C1F8043352
:105710000023C2F80435094AD2F80034002BFBD02C
:10572000BFF34F8F0649074BCA6802F4E062134388
:10573000CB60BFF34F8F00BFFDE7704700E0014033
:1057400000ED00E00400FA052DE9F04190F8283062
:1057500003F01F03012B04460F4600F128062FD04B
:10576000022B18D08BB394F82910204609F069FB5E
:10577000024678B3304609F04EFC1D4D002834D166
:1057800013693BB33A463146204698470346FFF734
:10579000E1FC2B5024E0818DC9B209F033FF0546AE
:1057A0000028E0D0304609F036FC0246686883687D
:1057B000CAB99B6873B13A463146BDE8F041184713
:1057C000818DC9B209F005FFE9E790F8291009F0C9
:1057D0003CFFE4E7FFF7BEFC054B6FF085021A5073
:1057E0000020BDE8F081DB68E4E7D368C9E700BFCB
:1057F0000C0000002DE9F04F0B7E33F0800893B0D1
:1058000004460D46164640F08E847AB10846FFF7EE
:10581000E7FE6B7EDF0703D49E0711D52B7E7BB995
:10582000204613B0BDE8F04F09F021BC4A7E00F1DC
:105830002809900708D5802B0CD12846FFF7D0FE09
:10584000404613B0BDE8F08F910700F02784002B8D
:1058500040F02484D2072FD52B8A082B40F00684F1
:10586000EA681368A3625368C9F804302946002027
:1058700009F0C6F9054610B1FFF7B2FEEFE0484661
:1058800009F0C9FBE28D70B9B2B12946A0690BF0ED
:10589000E5F80146002800F02D84204613B0BDE84D
:1058A000F04F0AF058B83AB1114620460AF04EF8C7
:1058B0000546002800F01E84FFF74CFC94F8288071
:1058C000B14F002318F0600FC351C8F3411307D044
:1058D000032B40F0BD81FFF73DFC6FF0850337E0FF
:1058E000484609F098FB94F82930002840F04E8192
:1058F000013B0A2BEFD801A252F823F0735A0000A3
:10590000D7580000FF5A0000D7580000295900005E
:10591000D7580000D7580000D75800009959000008
:10592000D7580000FB590000618D7F29D3D8A38D83
:10593000002BD0D1E38D002BCDD118F01F0FCAD191
:1059400094F83030022B05D1FFF704FC4FF0FF3301
:105950003B5076E0A069036993F880301B0707D5B8
:10596000C9B209F0BAFB804628B1002D6CD167E7B7
:10597000012384F8393094F83030012B0AD1638D3B
:1059800043B984F83030FFF7E5FB3B58002B00F0BB
:10599000858056E00123F4E7204609F07CF9628D0A
:1059A000FF2A014697D8E38D002B94D194F8283034
:1059B000D80690D194F83030002BC5D02AB1D2B29D
:1059C000204609F02CFD0028BED0618D94F83830B7
:1059D0008B42D8D0C9B2204609F028FD8046002865
:1059E000C3D1628D002A14BF0223012384F8303012
:1059F000052120460AF050F8C5E708F01F08B8F165
:105A0000010F7FF468AFE38D002B7FF464AF628DEC
:105A1000FF2A3FF660AFA18DFF293FF65CAF94F8F7
:105A20003030022B90D1D2B2C9B2204609F011FF1A
:105A300010F1020F804640F01081FFF78BFB47F812
:105A4000008065B14FF000082846FFF7C9FDB8F1A6
:105A5000000F7FF4F5AEFFF77DFB3B58F3B14846EE
:105A600009F0D9FA0346A069002B00F04F8380218A
:105A700055E3E38D002B7FF42EAF94F83030002BEC
:105A80003FF462AF012BA18D02D100297FF45CAFFE
:105A900018F01F080CD0B8F1020F16D0E38D002BC0
:105AA00040F0D782204609F0CCFA0028D7D1B7E6DB
:105AB00000297FF449AF638D012BEFD194F86C304E
:105AC00061F3C30384F86C30E8E7B4F82AA0BAF1B4
:105AD000000FE3D15FFA81F84146204609F0ACFFA0
:105AE0000346FFF737FB3B50013302D14FF0FF383D
:105AF0003BE752464146204609F093FA43E7E38DDF
:105B0000002B7FF4E8AE628DA38D022A5FFA83FA40
:105B100011D108F01F085AEA08087FF4DCAEA0692A
:105B20000122190A09F0B6FA00287FF4D4AE012345
:105B300084F8393027E794F8301000293FF404AF97
:105B4000012902D1002B7FF4FFAE18F01F0811D0FD
:105B5000B8F1020FA2D1002AA0D15146204609F087
:105B600056FF0346FFF7F6FA3B500133BED0012241
:105B70005146C0E7002B7FF4E7AE012A8ED194F89E
:105B80006C3043F008039DE70C0000000A2B3FF641
:105B9000A2AE01A252F823F0C55B0000D758000066
:105BA000D7580000D7580000D7580000D758000039
:105BB0003F5C0000D7580000CF5F0000D7580000BE
:105BC000F95F0000E38D022B7FF485AE94F830304E
:105BD000002B3FF4B9AE012BA18D02D100297FF437
:105BE000B3AE18F01F0811D0B8F1020F1CD04FF05F
:105BF000000805F10C0A504609F005FAE38D9842B9
:105C000018D2FFF7A7FA6FF00B03A1E600297FF483
:105C10009BAE94F86C304FEA930808F00208C3F387
:105C2000001348EA0308E4E7C9B2204609F013FF6D
:105C30008046DEE74146504609F00BF8A3E6B4F88B
:105C40002AA018F01F0F4FEA1A235FFA8AFA09D028
:105C500029462046FFF778FD8046B8F1000F7FF413
:105C600084AE90E6013B0E2B3FF635AE01A252F812
:105C700023F000BFB15C0000F15C00009B5D000000
:105C8000D7580000D7580000935D0000935D0000D6
:105C9000D7580000D7580000D7580000D758000048
:105CA000D7580000D7580000D7580000DD5E00002C
:105CB00005F10C08404609F0A6F983462046B4F8E1
:105CC0002EA008F0E8FF20B101287FF404AE616F38
:105CD00000E0216F002900F02A820A78DA4528BF07
:105CE000DA46524528BF5246404608F0A1FF4AE630
:105CF000204608F0D0FF0AF1010201900146D2B21D
:105D0000204609F066FB804600283FF4E4AD05F12B
:105D10000C0AD0F804B0504609F075F99BF8002041
:105D2000824228BF02465946504608F081FFD8F803
:105D30000CB0BBF1000F09D1298AE38D99427FF69F
:105D400022AEC91A504608F08EFF1CE6DBF80400AC
:105D500083681B6B13B9DBF800B0EAE70199984739
:105D60000028F8D0A0F1040858F8041F0029F2D048
:105D70000A78002AEFD05046CDE9022109F043F914
:105D8000029A0399904238BF82B2504608F050FF01
:105D9000EAE7204608F07FFF9DE5524603212046B2
:105DA00009F08FF8824600283FF495AD09F026F9F6
:105DB000B4F82EB09AF81530C8B99AF814808DF856
:105DC00028808DF82930DAF8103005F10C0A1B888C
:105DD000ADF82A30504609F016F9C3455A4628BF97
:105DE0004246824228BF02460AA950467DE7DAF8B9
:105DF00008208DF81530C14B1340C14A4FF0000800
:105E000093428DF8148058D1102106A80BF0DCF8CD
:105E1000021EFFF660AD0AA9102ADFF8ECE20DF1D0
:105E2000180C084628BF1022424501F1020133D860
:105E3000920002325FFA82F88DF81480034605F171
:105E40000C0A5046029309F0DEF8D845424628BFB6
:105E50005A46904228BF104602288346804628BFF3
:105E60004FF0020B5A46A8EB0B0805A9504608F064
:105E7000DFFE4FEA58030193029B9B4603EB580257
:105E8000934521D118F0010F3FF47DAD019A995C43
:105E9000504608F0D6FE76E51CF8013B4FEA131A8F
:105EA00003F00F031EF80AA01EF8033001F802AC3D
:105EB00001F8013C08F10108B6E79AF81480DAF815
:105EC00010308DF81480BAE71BF8011B5046CDE95D
:105ED000023208F0BEFEDDE90232D1E7204608F0CA
:105EE000DAFE38B101282CD0FFF734F96FF08503C2
:105EF0003B5048E5236F002B00F019815B88B3F518
:105F0000007FF1D97F4B0A9300238DF82C30E36C8E
:105F100004F14C0B9B4508BF0023BDF82A10A3B128
:105F20005A7D0F2A08D11A7D0A44ADF82A209DF81F
:105F30002C2001328DF82C20226D934203D01B6857
:105F4000EBE7636FD7E7BDF82A10019105F10C0A62
:105F5000504609F058F8B4F82E800199884528BFBA
:105F60008846804528BF80464246052A28BF05222C
:105F70000AA95046019208F05BFE019AB8EB0208AC
:105F80003FF401ADE36C5B453FF4FDAC002B3FF407
:105F9000FAAC5A7D0F2A14D11A7D19690193424532
:105FA00028BF4246504608F043FE019B1A7D4245F9
:105FB00094BFA8EB0208A8EB0808B8F1000F3FF463
:105FC000E2AC226D93423FF4DEAC1B68DEE794F84E
:105FD0003030002B3FF4B8ACE38D012B7FF47BAC69
:105FE00005F10C08404609F00EF800283FF409AE10
:105FF00094F8381040464CE708F01F08B8F1010F3C
:106000007FF4A2AC204609F0F8F900283FF49CACDC
:10601000B4F82CA0BAF1FF0F3FF65DAC43681B79D2
:106020005345FFF458AC5FFA8AF30F2B3FF653AC9D
:10603000E38D012B7FF44FAC05F10C08404608F0CE
:10604000E2FF00283FF4DDAD04EB0A0393F83A10B9
:10605000D0E7484608F0DFFF18B92846FFF7C0FA36
:1060600020E52946204609F076FC08B1284603E4DD
:10607000A069036993F8801011F004017FF4D0AB9C
:106080000AF000FD054600283FF4E9AC0146204631
:1060900009F061FC00283FF4C3ABE7E752077FF546
:1060A000DEAC002B3FF4C9AB2846FFF799FA94F811
:1060B0003930002B3FF4C4AB94F82930052B05D1BF
:1060C000618DA069C9B209F008F8064694F8293034
:1060D000032B09D1638D022B06D1A18DA06900226B
:1060E000090A08F0D7FF0646002384F83930B04685
:1060F000FFF7A6BB6FF00B06B1E400BF00FF020084
:1061000000030200050F050019420100E38D002B7A
:106110003FF4ADAC16F10C0118BF0121C9010AF022
:10612000B6FBFFF77DBB6FF00408FFF789BB6FF08C
:1061300015081AE40B78062B10B414D10369D3F8B0
:106140009C20EFF31184402383F31288BFF36F8FF9
:106150004B6800201860506A60B9C2E9083384F3C4
:106160001188BFF36F8F05485DF8044B00220023B0
:106170000BF081BE03605362F1E700BFD006002040
:106180002DE9FF4140264FF0FF335E484FF0FF32CC
:1061900001A904F04FFB039B1B69D3F89C40236AC1
:1061A00093B1EFF3118286F31288BFF36F8F216AE8
:1061B00029B1606A0B682362814208BF636282F37F
:1061C0001188BFF36F8FC9B99DF80430062BDAD060
:1061D000072BD8D801A252F823F000BF2F6200008D
:1061E000236200004F62000035620000736200000D
:1061F0006962000087610000FD6200000B7ED1F83B
:106200001E205D06204609D1FFF7F4FA0246002859
:10621000C5D00721204609F03FFCC0E709F0E9F9A5
:10622000F4E700220121204609F036FCABE700220A
:106230001146F8E794F86C3043F0040301A984F8A0
:106240006C30204608F071FF00220321EBE794F840
:106250006C3023F0040301A984F86C30204608F068
:1062600064FF00220221DEE701A9204608F05DFF5D
:1062700089E794F86C30A76923F0040384F86C3044
:10628000D7F808803B69BFF35B8FD3F8A030BFF32A
:106290005B8F9A072FD5D8F83C3038469847D8F806
:1062A0002430002138469847D8F840300546384613
:1062B0009847ADB92946204609F0B8F8054678B99F
:1062C000A0690AF0FEFB831E5842584194F86C30D6
:1062D00084F8305023F0680343EA401384F86C30AC
:1062E00000220421204609F0D7FB002D3FF44BAFDC
:1062F0002A46072197E74FF0FF35F1E7029A06217A
:1063000091E700BFD006002030B589B000220023FD
:10631000CDE9062300246FF00703CDE90334CDE96E
:1063200001441A4B1A4900944FF48062194804F052
:10633000D1FE194917480BF0F7FE184B18498B424C
:1063400007D3184B184900208B4210D3002009B006
:1063500030BD03F11402BFF35B8F52E8000F42E837
:106360000045002DF9D1BFF35B8F1833E7E703F148
:106370001402BFF35B8F52E8004F42E80005002D86
:10638000F9D1BFF35B8F1833DEE700BF81610000F6
:1063900000460020600D0020923B0100E007002035
:1063A00010080020100800201008002038B5024610
:1063B0000949054680690AF0EAFB044648B985F8B0
:1063C0003800284608F008FF044610B1A8690AF012
:1063D00011FC204638BD00BF3561000070B5084C87
:1063E000084E0546B44202D30024204670BD6368BF
:1063F00028461968FBF7B7F90028F6D01834F1E7FA
:10640000E0070020100800202DE9F0470646174657
:106410001D46F9B16FF08500BDE8F087D4F804801F
:1064200025B1A5F1040A5AF8041F41B9D8F80010A3
:106430003B460022304609F01FF930B1ECE7D8F8AE
:106440000000FBF790F90028EDD118344C45E5D356
:106450000020E1E7014CDFF80890F7E7E0070020B3
:106460001008002070B50646EFF31181402383F336
:106470001288BFF36F8F1B4D2A6881F31188BFF319
:106480006F8F526892F86C20D20705D4BDE8704037
:106490002122002304F062BDEFF3118283F31288FE
:1064A000BFF36F8F2C682CB1696823682B608C4216
:1064B00008BF6B6082F31188BFF36F8F44B16068CF
:1064C00004F10801C3699847074821460BF083FC93
:1064D0002B6833B130460022BDE87040002304F041
:1064E00009BD70BD501B0020EC05002030B585B003
:1064F000CDE90012054600221448002303A904F048
:1065000005F90246E8B9039BDDE900015D60083347
:1065100083E80300EFF31180402383F31288BFF375
:106520006F8F039B1A600A4A516861B9C2E9003350
:1065300080F31188BFF36F8F06480022002304F018
:10654000D9FC05B030BD0B605360F1E7EC050020CD
:10655000501B00200800002038B54B7804694568BE
:106560002069202B08D0222B19D0FEF7F3FD114B08
:106570006FF085021A5010E0CB88072BF5D1D36855
:106580001A6842609A8802819B79837209F0A5FAA1
:1065900022460821284609F08DFA002038BD4B8894
:1065A0008381C3F3400203F001030276437622465F
:1065B0000921EFE70C00000008B513464A78212AAC
:1065C00014D133B9FEF7C6FD0B4B6FF00B021A5016
:1065D0000AE0CA8801690969072A28BF072204312D
:1065E00003F10C0008F024FB002008BDFEF7B2FD0B
:1065F000014B6FF08502EAE70C00000073B50469F7
:106600008DF807104025EFF3118685F31288BFF34C
:106610006F8F0122E06B0DF1070107F087FC86F315
:106620001188BFF36F8F012810D00BF077FDA8B150
:106630000E4BBFF35B8F012253E8001F002903D1EB
:1066400043E800200028F7D1BFF35B8F212200230D
:1066500004F1480004F04EFC02B070BDA37E002B94
:10666000E6D0002121200BF0F7FDCCE7581B0020DD
:1066700038B505690E49EB6B0024C3E90144DC60C1
:106680006B6B05F14800C3E90144DC600BF02DFDA4
:1066900005F1780007490BF0FCFC074905F12400DF
:1066A0000BF0F7FC284609F018FA204638BD00BF69
:1066B000A9FC0000F3FF000045FF000010B50469CD
:1066C0000346204640F8143B012200210BF08DFCCC
:1066D00004F1240002490BF0DCFC002010BD00BFD7
:1066E000F103010073B513464A7800690A2A09D0FC
:1066F0000B2A35D0092A254C1BD0FEF72BFD6FF055
:1067000085032BE0498803690A0A5C6811F0FF01E0
:1067100008BF83F83420E36823B192009847002033
:1067200002B070BDFEF716FD184B6FF085021A50CF
:10673000F5E705694A886D68AD68110AD2B2002D87
:10674000F0D0022903D0032901D00129D5D1DE6878
:1067500000961B8AA8470346FEF7FCFC2350DEE7A1
:1067600049880129DED843681B689B79002BD9D062
:10677000036993F835208A42D1D05A68C9B283F8A8
:1067800035105369002BCAD09847C8E70C000000A9
:1067900073B514464A780069013A0B46052A07D8B2
:1067A000DFE802F020034D06065CDA88012A06D0F5
:1067B000FEF7D0FC374B6FF085021A503AE059884B
:1067C0000369C9B231B15B681B69002BF0D09847EF
:1067D000810801E093F83410C9B204F10C0008F00C
:1067E00030FA27E05A880569DB886D68110A0229AA
:1067F000D2B20AD0032908D0012906D06FF0850350
:10680000FEF7A8FC234A135014E0E66800966D6872
:10681000A8470028034610DD228A618A6069891A28
:10682000E268121A891A994228BF194604F10C002D
:1068300008F0F8F9002002B070BDE1D1DEE75A8817
:10684000002AB5D1DB88012BB2D143681B689B7944
:10685000002BADD0036993F83510BEE75A88120AB1
:10686000212A0DD0222AA3D10169DA88CB68896850
:106870009A4228BF1A4604F10C0008F0D9F9D9E76A
:106880004268DB8811684A7A9A4228BF1A46093161
:10689000F1E700BF0C00000010B5094C0A4491421A
:1068A00000D110BD11F8013B584003090001E35C21
:1068B000C0B2434018091B01205CDBB25840EEE730
:1068C00032420100F8B587681446FB6B05460E4658
:1068D00098472146064800220023FEF703FE04469F
:1068E00000B1067628463B6C98472046F8BD00BFAD
:1068F0004007002010F0080F0B4B42B20CD100F003
:106900000F00002A4FF0140202FB0033B4BFD3F88B
:106910000806D3F808077047002AB4BFD3F8A806C2
:10692000D3F8A807704700BF00700240F8B50246D0
:10693000EFF31181402383F31288BFF36F8F00F0D0
:1069400008050AF090F90124844057066FEA04060E
:106950001BD0D5B9174F3B6823FA00F0C00714D5F8
:1069600033403B6053B2DB4322F08000DB0F00F288
:10697000DA301B0103EB40030F48C0F80038D0F8B1
:10698000043843F00203C0F804380C48036833406D
:10699000036035B90A480368120654BF33402343E5
:1069A0000360054BC3F86C4481F31188BFF36F8F0C
:1069B000F8BD00BFEC1B002000700240F01B00205F
:1069C000F41B0020EFF31180402383F31288BFF300
:1069D0006F8F0A4BD3F8001C032261B949F275315D
:1069E000C3F8001CC3F8142DC3F8001C80F31188F1
:1069F000BFF36F8F7047C3F8142DF7E700E0064030
:106A0000EFF31180402383F31288BFF36F8F0A4B9B
:106A1000D3F8001C61B949F27532C3F8002CC3F8F1
:106A2000141DC3F8002C80F31188BFF36F8F7047DB
:106A30000022C3F8142DF6E700E0064070B50246C8
:106A40000AF011F9EFF31185402383F31288BFF3A5
:106A50006F8F531E0124062B04FA00F40FD80E4E3C
:106A60000E4B31681B680B43C34013F0010306D182
:106A70000B4802F59472214340F822303160094AF4
:106A8000136823431360084B8022C3F8042185F365
:106A90001188BFF36F8F70BDEC1B0020F41B00202A
:106AA00000700240F01B002000E100E0F8B5030692
:106AB000044623D410F0080720D100F00F02920002
:106AC00002F1804202F51C32D2F84434B3B1EFF344
:106AD0001186402383F31288BFF36F8F0AF0C3F847
